:020000022000DC
:10300000000001203D32020095320200973202009A
:10301000993202009B3202009D3202000000000043
:103020000000000000000000000000009F320200CD
:10303000A132020000000000A3320200A53202000B
:103040007D620200AB320200AD3202001572020056
:10305000B1320200B3320200B5320200B7320200D0
:10306000B9320200A57E0200BD320200BF3202006A
:10307000C1320200C3320200C5320200C732020070
:10308000C9320200653D0200CD320200CF3202009B
:10309000A53D0200D3320200FDF30200D732020048
:1030A000D9320200DB320200DD320200DF320200E0
:1030B000E13202005D730200A7320200A732020073
:1030C000E5320200E7320200E9320200EB32020090
:0C30D000ED320200EF320200F13202008B
:1030DC00364937480A1A02D0072291438D463549A2
:1030EC0035480A1A06D00722914381F30988022237
:1030FC0082F3148831483249324A00F045F832489C
:10310C003249334A00F040F832483349334A00F030
:10311C003BF833483349344A00F036F833483449E5
:10312C00344A00F031F834483449354A00F02CF870
:10313C0034483549354A00F027F8354835490022DE
:10314C0000F02DF834483549002200F028F83448B6
:10315C003449091A082903DB00220260043001609B
:10316C00314A90471F482049884205D002680430F4
:10317C0003B4904703BCF7E700208646EC460020DA
:10318C0000212A4A9047FEE7884207D0521A05D000
:10319C00037801300B700131013AF9D17047884244
:1031AC0002D002700130FAE77047000000000120E5
:1031BC0000F8002000000120000001205846040007
:1031CC00F42000200C210020F4320200F432020022
:1031DC00100B030058460400F4200020F4200020BB
:1031EC00740B0300740B0300740B0300740B0300CB
:1031FC00740B0300740B0300740B0300740B0300BB
:10320C0058460400704604000C2100200C210020BC
:10321C000C2100205F6B0020606B0020606B002095
:10322C00606B0020606D0020613202003D7A02006C
:10323C000F484FF00701884385460E4880470E48DB
:10324C00016841F470010160BFF34F8FBFF36F8FC2
:10325C00FFF73EBF09480A490A4A884207D0521A6A
:10326C0005D0037801300B700131013AF9D1704768
:10327C000000012029EA020088ED00E0600B030049
:10328C00E0200020F4200020FEE7FEE7FEE7FEE74A
:10329C00FEE7FEE7FEE7FEE7FEE7FEE7FEE7FEE7FA
:1032AC00FEE7FEE7FEE7FEE7FEE7FEE7FEE7FEE7EA
:1032BC00FEE7FEE7FEE7FEE7FEE7FEE7FEE7FEE7DA
:1032CC00FEE7FEE7FEE7FEE7FEE7FEE7FEE7FEE7CA
:1032DC00FEE7FEE7FEE7FEE7FEE7FEE7FEE7FEE7BA
:0832EC00FEE7FEE7FEE700BF6C
:1032F40082B003468DF8073007499DF907305B0912
:103304009DF8072002F01F02012000FA02F241F8A2
:10331400232000BF02B0704700E100E082B0034602
:103324008DF8073008499DF907305B099DF807209F
:1033340002F01F02012000FA02F2203341F8232098
:1033440000BF02B0704700BF00E100E082B0034656
:103354008DF8073008499DF907305B099DF807206F
:1033640002F01F02012000FA02F2403341F8232048
:1033740000BF02B0704700BF00E100E082B0034626
:103384008DF8073008499DF907305B099DF807203F
:1033940002F01F02012000FA02F2603341F82320F8
:1033A40000BF02B0704700BF00E100E082B00346F6
:1033B40000918DF807309DF90730002B0CDA0D4988
:1033C4009DF8073003F00F03043B009AD2B2520178
:1033D400D2B20B441A7609E007499DF90730009AE6
:1033E400D2B25201D2B20B4483F8002300BF02B020
:1033F400704700BF00ED00E000E100E084B0019000
:10340400244B0393019B002B40D0234B1A68039950
:10341400019B00BF00BF00BF00BF00BF00BF00BFD3
:1034240000BF8A422FD000BF00BF00BF00BF00BF53
:1034340000BF00BF00BF00BF00BF00BF00BF00BF90
:1034440000BF00BF00BF00BF00BF00BF00BF00BF80
:1034540000BF00BF00BF00BF00BF00BF00BF00BF70
:1034640000BF00BF00BF00BF00BF00BF00BF00BF60
:1034740000BF00BF00BF00BF00BF00BF00BF00BF50
:1034840000BF00BF00BF013BC3D1019300BF04B024
:10349400704700BF0024F4000821002000B583B069
:1034A4000190064A019BC2F8083507211120FFF755
:1034B4007DFF00BF03B05DF804FB00BF00100140B6
:1034C40008B50D4B4FF48032C3F844230A4B4FF434
:1034D4008032C3F804231120FFF750FF1120FFF7B7
:1034E40007FF054B01221A602F20FFF787FF034BCC
:1034F40001221A7000BF08BD001001402A220020DA
:1035040008B51120FFF70AFF0E4B4FF48032C3F8C1
:1035140048230C4B4FF48032C3F80823094B012293
:103524005A602F20FFF76AFF064B01229A60064B70
:1035340000221A602F20FFF761FF044B00221A704B
:1035440000BF08BD001001401C2200202A220020D8
:10355400024BD3F804351846704700BF00100140F1
:1035640082B001900091019A009BD31A23F07F430B
:10357400184602B07047000082B00190034A019BD4
:10358400C2F8403500BF02B0704700BF00100140D0
:1035940086B00190284B1B68002B03D1264A019B5F
:1035A400136045E0019B1A68234B1B681B689A4211
:1035B40010D8214B1B68204A12681168019A1268BE
:1035C4008A1A1A601C4B1A68019BDA611A4A019B19
:1035D40013602DE0019B1B680393174B1B68059335
:1035E400154B1B68049309E0049B1B68039AD31AC8
:1035F4000393049B0593049BDB690493049B002BB6
:1036040004D0049B1A68039B9A42EDD3049B002BBD
:1036140005D0049B1A68039BD21A049B1A60019B71
:10362400039A1A60019B049ADA61059B019ADA6194
:1036340000BF06B0704700BF1822002000B587B055
:1036440001902A4B1B680393284B1B680593059B29
:10365400049308E0049A019B9A4208D0049B0593C2
:10366400049BDB690493049B002BF3D100E000BFAF
:10367400049B002B01D1002333E0059A049B9A425A
:1036840014D11A4B1B68DB69184A1360174B1B686B
:10369400002B0BD1164B01229A60164B00221A60A4
:1036A400154B01221A702F20FFF7A8FE049B1B68FC
:1036B4000293049BDA69059BDA61059BDB69049339
:1036C400049B002B05D0049B1A68029B1A44049B9C
:1036D4001A60064B1B68039A9A4214BF0123002305
:1036E400DBB2184607B05DF804FB00BF18220020C7
:1036F400001001401C2200202B22002008B51120BC
:10370400FFF724FE00BF08BD08B51420FFF71EFE16
:1037140000BF08BD00B583B00190019B5B69019AAD
:1037240092691046984700BF03B05DF804FB00009F
:1037340000B585B02B4B1B68002B4ED000230193A2
:10374400FFF706FF0246284B1B6819461046FFF791
:1037540007FF0290234B1B6803931DE0039B1A6829
:10376400029B9A421CD8039B1B68029AD31A0293A9
:10377400039B1B68019A13440193039B0093039BCF
:10378400DB690393009B1B7C002B05D0009B00226C
:103794001A740098FFF7BEFF039B002BDED100E0F4
:1037A40000BF124B1A78124B1B789A420CD1104B63
:1037B4001B780133DAB20E4B1A700D4B1B78022BB7
:1037C40002D10B4B00221A70094B1B781946094A87
:1037D400019B42F82130FFF797FF00BF05B05DF869
:1037E40004FB00BF182200201C22002028220020F5
:1037F400292200202022002082B00190184B1A7840
:10380400184B1B789A4223D0154B1B780133DAB23C
:10381400134B1A70124B1B78022B02D1104B00224F
:103824001A700F4B1B781A460F4B53F82220019B3A
:103834001A60019B1A680D4B1B6813440B4A1360F2
:103844000A4B1B6823F07F43084A1360012303E0FB
:10385400019B00221A600023184602B0704700BF83
:103864002822002029220020202200201C220020BF
:1038740088B00390029101920023079338E0204B13
:103884001B680693069B1A68039B9A4206D9069BFB
:103894001A68039BD21A069B1A602DE0069B1B68CC
:1038A400039AD31A0393069B1B68079A134407933E
:1038B400069B00221A60124B1B680593069BDB696A
:1038C4000F4A1360069BDB68002B11D0029A079BFA
:1038D400134423F07F42069B5A60069BDA68069BDA
:1038E4009A60019B1A68069BDA61019B059A1A602B
:1038F400034B1B68002BC2D100BF08B0704700BF48
:103904001822002000B589B0019000238DF81F30E3
:10391400664B1B680593AAE0019B002B05D0019B15
:103924000693069BDB69019361E0614B1B781A46A1
:1039340013465B001344DB005D4A134404330493D1
:103944005B4B1B780133DAB2594B1A70584B1A7817
:10395400574B9B789A4202D1554B00221A70049B14
:103964005B680693049B1B78022B04D0032B1BD0AB
:10397400012B1FD01DE0049B5B681846FFF75EFE19
:103984000346002B02D001238DF81F30069B002232
:103994001A746CE0454B1B680393039B00221A7452
:1039A400039BDB69414A1360404B1B68002BF1D138
:1039B4005DE05CE000BF069B1B7C002B00D056E062
:1039C400049B9A68069B5A60049BDA68069B9A607B
:1039D400049B1A69069BDA60049B5A69069B9A61E8
:1039E400344B1B78002B02D0069B00225A60069BA6
:1039F4005A68314B1B68D31A23F07F432F4A9342F2
:103A04000ED8069B5A682C4B1B6819461046FFF7C4
:103A1400A7FD0246069B9B681A44069B1A6017E0A2
:103A2400254B1A68069B5B6819461046FFF798FDFC
:103A34000290069B9A68029B9A4206D9069B9A6852
:103A4400029BD21A069B1A6002E0069B00221A60AF
:103A5400069B00225A60069B00229A60069B012264
:103A64001A74069B0022DA610698FFF791FD019B08
:103A7400002B7FF451AF0E4B1A780D4B5B789A42B2
:103A84007FF44AAF9DF81F30002B04D1074B1A680E
:103A9400059B9A4201D0012300E0002303F00103B7
:103AA400DBB2184609B05DF804FB00BF1822002001
:103AB4000C2100202B2200201C220020FEFF7F006E
:103AC40010B588B00190274B1B68002B44D0254BC0
:103AD4001B681B680793FFF73BFD0690224B1B688E
:103AE400059305990698FFF73BFD034603330493BA
:103AF4001E4B1B7883F00103DBB2002B01D0FFF7D0
:103B0400DFFC049A079B934238BF1346059A13447B
:103B14000593059B23F07F4305930598FFF72CFD40
:103B2400FFF716FD039006990398FFF719FD034666
:103B3400DC1C06990598FFF713FD03469C420DD93A
:103B4400FFF706FD03461846FFF716FD2F20FFF783
:103B540055FCFFF7D3FD01E0FFF7D2FC00BF08B02E
:103B640010BD00BF182200201C2200202A220020A1
:103B740000B587B00023019300238DF81730194B4B
:103B84001B680493184B1B6803936B461846FFF796
:103B940033FE03468DF80B309DF80B30002B08D014
:103BA400009B01AA04991846FFF762FE01238DF8D1
:103BB4001730019B1846FFF7A5FE0346002B02D0E1
:103BC40001238DF817309DF81730002B02D003988D
:103BD400FFF776FF054B00221A7000BF07B05DF8AF
:103BE40004FB00BF1C220020182200202B220020EE
:103BF40082B003468DF80730034A9DF807305370AE
:103C040000BF02B0704700BF0C21002084B00190B7
:103C1400144B5B7801338DF80F30124B9B789DF871
:103C24000F209A4202D100238DF80F300D4B1B78E0
:103C34009DF80F209A4201D100230FE0019B9DF8CB
:103C44000F201A70074B5B781A4613465B00134427
:103C5400DB00044A134404330293029B184604B065
:103C6400704700BF0C21002000B589B00390029179
:103C7400019200930023079300238DF816300DF171
:103C84001603184600F0BCF90DF117031846FFF7A8
:103C9400BDFF0690069B002B02D10423079318E076
:103CA400069B01221A70069B039A5A60FFF750FC88
:103CB4000246069B9A60069B029ADA60069B019A6A
:103CC4001A61069B009A5A619DF817301846FFF74F
:103CD4008FFF9DF81630184600F0A8F9079B002BBB
:103CE40001D1FFF711FD079B184609B05DF804FBED
:103CF40000B587B001900B468DF80330002305937F
:103D040000238DF80E300DF10E03184600F078F9FB
:103D14000DF10F031846FFF779FF0490049B002B65
:103D240002D1042305930BE0049B9DF803201A7031
:103D3400049B019A5A609DF80F301846FFF758FF0C
:103D44009DF80E30184600F071F9059B002B01D147
:103D5400FFF7DAFC059B184607B05DF804FB00008A
:103D640008B50E4B0022C3F840210C4B0022C3F8C7
:103D740044210A4B0022C3F84821084B0022C3F80F
:103D84004C21064B0022C3F80021044B0022C3F847
:103D94000421FFF7CDFC00BF08BD00BF00100140A7
:103DA40008B5FFF7E5FE00BF08BD000008B5FFF742
:103DB400A7FB134B00221A70114B00225A70104BB0
:103DC4000B229A700F4B00221A600F4B00221A70BC
:103DD4000E4B00221A701420FFF7D0FA072114208A
:103DE400FFF7E4FA1420FFF783FA0020FFF756FBED
:103DF400FFF7AEFB0246064B1A600023184608BDC7
:103E04000C21002018220020282200202922002032
:103E14001C22002086B003900B4601928DF80B30D3
:103E2400134B9B78002B01D108231EE0019B002B30
:103E340001D1072319E0039B002B01D1072314E0D0
:103E4400039B1B681B7C002B01D008230DE0039B04
:103E54001B680593059B00221A74059B9DF80B2093
:103E64005A74059B019A5A610023184606B070479C
:103E74000C21002000B587B0039002910192039BAE
:103E84000593144B9B78002B01D108231EE0039B60
:103E9400002B01D1082319E0029B042B01D807232E
:103EA40014E0059B5B69002B01D108230EE0059B00
:103EB4005B7C012B01D1029B00E000230493019B56
:103EC400049A02990598FFF7CFFE0346184607B0F7
:103ED4005DF804FB0C21002000B585B00190019B26
:103EE40003930D4B9B78002B01D1082310E0019B19
:103EF400002B03D0039B5B69002B01D1082307E04F
:103F0400039B00221A7402210398FFF7F1FE034673
:103F1400184605B05DF804FB0C21002082B0EFF3D5
:103F240010830093009B019372B6019B184602B064
:103F3400704762B600BF704700B585B00190FFF7C7
:103F4400EDFF0390164B9B68002B1BD1144B0122F1
:103F54009A60144BD3F88020134B1340104A13601B
:103F6400104B114AC3F880200E4BD3F884300C4A0E
:103F740053600C4B4FF0FF32C3F88420019B0022A6
:103F84001A7002E0019B01221A70039B002B01D1DD
:103F9400FFF7CFFF0023184605B05DF804FB00BF10
:103FA4002C22002000E100E0FC06FFBD00B585B036
:103FB40003468DF80730104B9B68002B16D09DF8F4
:103FC4000730002B12D1FFF7A9FF03900B4A0A4BCD
:103FD4001B681360094A084B5B685360064B002258
:103FE4009A60039B002B01D1FFF7A3FF002318461F
:103FF40005B05DF804FB00BF2C22002000E100E0C6
:1040040000B583B0019000F02BF80346012B03D0D8
:104014000549432000F041F80198FFF78DFF00BFE8
:1040240003B05DF804FB00BF740B030000B583B05C
:1040340003468DF8073000F013F80346012B03D034
:104044000649512000F029F89DF807301846FFF77B
:10405400ADFF00BF03B05DF804FB00BF740B0300A9
:1040640084B0EFF305830193019BC3F30803039327
:10407400039B002B0DD1EFF314830093009B029359
:10408400029B03F00103002B0CBF01230023DBB2CE
:1040940000E00123184604B0704700B585B003461C
:1040A4000091ADF80630BDF80630ADF80830009B3D
:1040B400039302AB1A46002144F2020000F0AEFA68
:1040C40000BF05B05DF804FB86B001900091019B30
:1040D40053E8011F8AB2D88902449889824228BFD2
:1040E400121A1889824202BFBFF32F8F002307E000
:1040F400C2EA010243E801200028E9D14FF001039C
:104104008DF80F30059002910492029A009B1A6078
:104114009DF80F30DBB2184606B0704784B00190AA
:10412400019951E8013FC3EA034341E80132002AFF
:10413400F7D10392029300BF04B0704786B0019098
:104144000091019B53E8021F1FFAA1F2D888824212
:1041540002BFBFF32F8F00230DE0D8890244988952
:10416400824228BF121AC1EA024243E80220002810
:10417400E8D14FF001038DF80F30059002910492BD
:10418400029A009B1A609DF80F30DBB2184606B005
:10419400704784B00190019951E8023FC3EA234378
:1041A40041E80232002AF7D10392029300BF04B01F
:1041B400704700B583B001900091009B19460198A7
:1041C400FFF782FF0346002B05D0019B1B68009A72
:1041D4001288134400E00023184603B05DF804FB82
:1041E40000B583B001900091009B1A88009B5B8806
:1041F4009A4204D10198FFF791FF012300E00023C4
:10420400184603B05DF804FB00B583B0019000913B
:10421400009B19460198FFF791FF0346002B05D038
:10422400019B1B68009A5288134400E0002318463F
:1042340003B05DF804FB00B583B001900091009BCE
:104244001A88009B5B889A4204D10198FFF7A1FF6A
:10425400012300E00023184603B05DF804FB0000CE
:1042640000B583B001900091019B002B03D110494C
:104274005020FFF712FF009B002B03D10C49512063
:10428400FFF70BFF019B009A1A60019B1B681A68D9
:10429400019B5A60019B5A68019B1B685B689A42A8
:1042A40002D1019B00225A6000BF03B05DF804FBF9
:1042B400CC0B030000B583B00190019B002B03D10C
:1042C40014496320FFF7E9FE019B1B68002B03D10F
:1042D40010496420FFF7E1FE019B5B68002B14D0BA
:1042E400019B5B681A46019B1B689B6813441A4632
:1042F400019B5A60019B5A68019B1B685B689A4248
:1043040004D1019B00225A6000E000BF03B05DF8B5
:1043140004FB00BFCC0B030082B001900B46ADF848
:104324000230019B1A68BDF80230012101FA03F33F
:104334001A43019B1A6000BF02B0704782B001901B
:104344000B46ADF80230019B1A68BDF8023001211A
:1043540001FA03F3DB431A40019B1A6000BF02B069
:10436400704782B001900B46ADF80230BDF80230C0
:10437400012202FA03F31A46019B1340002B14BFD7
:1043840001230023DBB2184602B0704700B585B0A4
:1043940001900023ADF80E3010E0BDF80E30194640
:1043A4000198FFF7DEFF0346002B02D0BDF80E3064
:1043B4000AE0BDF80E300133ADF80E30BDF80E3012
:1043C4001F2BEAD94FF6FF73184605B05DF804FBBE
:1043D40000B587B00590049111461A460B46ADF816
:1043E4000E3013468DF80D30BDF80E209DF80D30BB
:1043F4000093134601220499059800F004F800BFC5
:1044040007B05DF804FB00B587B0039002910192F8
:10441400ADF80230039B002B3BD0029B002B38D01D
:10442400019B002B35D0002305932FE0059B5B00F7
:10443400039A13441B88BDF802209A4223D1002317
:1044440004931BE09DF82030002B0AD0049B9B00B2
:10445400029A1344059A92B211461846FFF75CFF7C
:1044640009E0049B9B00029A1344059A92B21146F8
:104474001846FFF763FF049B01330493049A019BDE
:104484009A42DFD305E0059B01330593059B1F2B5F
:10449400CCD907B05DF804FB00B587B00390029156
:1044A4001346ADF80630039B002B19D00023059367
:1044B40013E0059B5B00039A13441B88BDF8062098
:1044C4009A4207D1059B9BB219460298FFF749FF10
:1044D400034606E0059B01330593059B1F2BE8D992
:1044E4000023184607B05DF804FB00B597B00390AD
:1044F4000291019200230493029B002B1ED00023FF
:10450400159318E0159B9BB219460198FFF729FFF4
:104514000346002B0CD0049B5A1C0492159A52009B
:1045240002990A4412885B0016A90B4423F8442C10
:10453400159B01331593159B1F2BE3D9039B184639
:1045440004AB442219460CF053FA039817B05DF8F3
:1045540004FB00B589B0039002910192029B9BB2C7
:10456400ADF81430019B0693039B079305AB1A46E1
:10457400002144F2010000F051F800BF09B05DF8D9
:1045840004FB000086B003900291019201238DF890
:1045940017309DF81730204A039B13601E4A029B74
:1045A40053601D4A019B9360039B44F201029342B2
:1045B40012D044F20202934222D1019B164AD360E4
:1045C400154BDB681B881A46134B9A61124BDB6848
:1045D4005B68114AD36113E0019B0F4A13610E4BD0
:1045E4001B699B680C4A53610B4B1B691B881A4659
:1045F400094B9A61084B1B695B68074AD36100BF8A
:1046040072B600BF9DF81730DBB2002BFAD162B648
:1046140000BF06B0704700BF3822002000B587B045
:10462400039002910192039B41F20102934215D03F
:1046340041F20102934202D8012B11D011E044F25D
:104644000102934207D044F20202934200D008E0F0
:10465400019B059305E0019B049302E000BF00E089
:1046640000BF084B1B6803F00103002B00D0FFDEE2
:10467400019A02990398FFF785FF00BF07B05DF820
:1046840004FB00BFF0ED00E082B00190019B03F059
:104694000303002B0CBF01230023DBB2184602B036
:1046A400704710B487B001900091019B009A53E8C1
:1046B400004F04EB020043E8000191F0000FF6D133
:1046C400059404900391059B184607B05DF8044BCC
:1046D400704710B487B001900091019B009A53E891
:1046E400004F04EB020043E8000191F0000FF6D103
:1046F400059404900391049B184607B05DF8044B9D
:10470400704710B487B001900091019B009A53E860
:10471400004FA4EB020043E8000191F0000FF6D132
:10472400059404900391049B184607B05DF8044B6C
:104734007047000000B585B00190002303930EE09C
:104744000A4A039B52F82330002B05D0074A039BE7
:1047540052F8233001989847039B01330393039B3A
:10476400032BEDD900BF05B05DF804FB64220020E3
:1047740082B001900091019B1B78013B052B61D80D
:1047840001A252F823F000BFA5470200AD47020082
:10479400D3470200054802002548020041480200B0
:1047A400009B00221A704EE0009B01221A70019BAC
:1047B4001A89009B9A81019B9A88009BDA81019B4C
:1047C400DA68009B9A60009B00221A743BE0009B0D
:1047D40002221A70019B1A89009B9A81019B9A8874
:1047E400009BDA81019BDA68009B9A60019B9B7DA8
:1047F400062B0CBF01230023DAB2009B1A7422E0BB
:10480400009B03221A70019BDA88009B9A81019B0A
:104814001A89009BDA81019BDA68009B9A6012E096
:10482400009B04221A70019BDA88009B9A81009BEA
:104834000022DA81009B00229A6004E0009B05229A
:104844001A7000E000BF00BF02B0704784B001904E
:104854000091019B0393039A009B9A4206D2039B07
:104864001B68B3F1FF3F01D0012300E0002303F0F4
:104874000103DBB2184604B0704782B00190019B7B
:104884005B8803339B00019A1344184602B07047B7
:1048940000B583B0019000910198FFF7EEFF024646
:1048A400009B9A4201D902230CE0019B9B884FF69E
:1048B400FF72934203D0019B1B88002B01D101237B
:1048C40000E00023184603B05DF804FB00B583B094
:1048D4000190019B002B13D00D4BDB681A46019B02
:1048E4009A420DD80A4B1B691A46019B9A4207D378
:1048F4000198FFF7C9FE0346002B01D0012300E015
:10490400002303F00103DBB2184603B05DF804FB97
:10491400E020002082B003460A46ADF80630134674
:10492400ADF80430BDF80620134913469B00134428
:104934009B000B4408331A88BDF804301344ADF8C7
:104944000430BDF806200C4913469B0013449B0019
:104954000B440A331A88BDF804301344ADF804300C
:10496400BDF8043040F2FF32934294BF0123002388
:10497400DBB2184602B070478822002084B0019050
:1049840000910A2303930023ADF80A3027E0BDF811
:104994000A20174913469B0013449B000B4404331D
:1049A4001A68009B9A4215D2BDF80A201049134692
:1049B4009B0013449B000B4404331B6803F5805293
:1049C400009B9A4206D900230393019BBDF80A2059
:1049D4001A8008E0BDF80A300133ADF80A30BDF89A
:1049E4000A30012BD3D9039B184604B0704700BF8B
:1049F4008822002082B001900B46ADF80230019B62
:104A04001A89BDF8023013449BB203339AB2019B56
:104A14001A81019B5A89BDF80230D31A9BB2033B19
:104A24009AB2019B5A8100BF02B0704700B583B0AF
:104A3400074B1B681946002300930823054A0648C0
:104A440001F00DFA0346184603B05DF804FB00BFFD
:104A5400B0220020800C0300E020002000B585B0C7
:104A640003900399002300930823044A044801F0A7
:104A7400F6F90346184605B05DF804FB880C0300FC
:104A8400E020002000B585B003460091ADF8063063
:104A940000238DF80F30BDF806300333ADF80A302B
:104AA400BDF80A3040F2FD32934201D909234AE0AD
:104AB4000023ADF80C303BE0BDF80C20244913462C
:104AC4009B0013449B000B441B78002B2BD1BDF897
:104AD4000A20BDF80C3011461846FFF71BFF0346A9
:104AE400002B20D001238DF80F30009BBDF80C2043
:104AF4001A80BDF80C20BDF80C1015480B469B001D
:104B04000B449B0003440A331988BDF80A300B4454
:104B140098B20F4913469B0013449B000B440A337D
:104B240002461A8008E0BDF80C300133ADF80C30B1
:104B3400BDF80C30012BBFD99DF80F30002B01D0EC
:104B4400002300E00723184605B05DF804FB00BF0E
:104B54008822002082B003460A46ADF80630134688
:104B6400ADF80430BDF80420BDF804100C480B4621
:104B74009B000B449B0003440A331988BDF806309C
:104B8400CB1A9BB2033B98B2054913469B001344CE
:104B94009B000B440A3302461A8000BF02B07047E0
:104BA4008822002008B501210248FFF792FD034640
:104BB400184608BD7422002000B585B00346009154
:104BC400ADF80630BDF80620234913469B00134474
:104BD4009B000B4404331B6803F580530293009B32
:104BE4001B680393039B002B04D00398FFF745FE37
:104BF400039024E0BDF80620174913469B00134494
:104C04009B000B4404331B680833039317E0029999
:104C14000398FFF73DFE0346012B09D0022B0CD06D
:104C2400002B00D00BE0009B039A1A6001230EE0D6
:104C34000398FFF722FE039001E0002307E00299A6
:104C44000398FFF703FE0346002BE0D10023184628
:104C540005B05DF804FB00BF8822002000B585B0D4
:104C640001900091019B5B681846FFF72FFE0346F5
:104C7400002B19D0019B1A89244B1B899A4213D10A
:104C8400019B1A68019B5B689B689A420CD1019B4B
:104C94005B6819460098FFF771FE0346002B0CBFB2
:104CA40001230023DBB22CE0009B00221A8023E0C6
:104CB4000023029310E0029B0393039B9A68019BD9
:104CC4001B689A4208D1029A019B5A600F4B1A89B9
:104CD400019B1A81012314E0009B1B8802AA114640
:104CE4001846FFF769FF0346002BE4D1009B1B889D
:104CF40001339AB2009B1A80009B1B88012BD7D9E1
:104D04000023184605B05DF804FB00BFB82200205C
:104D140000B587B00390029101920093304B1B7849
:104D2400DBB283F00103DBB2002B01D0022353E09A
:104D3400019B002B02D0009B002B48D105234BE0A4
:104D4400009B9B881946274A0B469B000B449B00FB
:104D540013441B78002B33D124E0009B1B6805937C
:104D6400039B002B06D0059B9A88039B1B889A42C1
:104D740000D017E0029B002B06D0059B1A88029BEB
:104D84001B889A4200D00DE0059B9A68019B1A602B
:104D9400009B1A68019B5A60134B1A89019B1A8164
:104DA400002319E0009B9B88009A11461846FFF7E0
:104DB40003FF0346002BD0D1009B00221A6000E0C1
:104DC40000BF009B9B8801339AB2009B9A80009B92
:104DD4009B88012BB4D90A23184607B05DF804FB5D
:104DE4005822002088220020B822002000B585B077
:104DF4000190084B01991846FFF7DBF903901C2238
:104E0400002103980BF01EFE039B184605B05DF8C5
:104E140004FB00BF7822002000B583B00190044B4E
:104E240001991846FFF7DCF900BF03B05DF804FBF5
:104E34007822002000B583B00190054B01991846F3
:104E4400FFF7E2F90346184603B05DF804FB00BF20
:104E54007822002000B583B00190044B01991846D4
:104E6400FFF7E9F900BF03B05DF804FB78220020E6
:104E740008B50A4B1B68002B04D1094940F2712084
:104E8400FFF70BF901210548FFF73BFC0346002B14
:104E940014BF01230023DBB2184608BD60220020A2
:104EA400380C030000B587B003900291039B0222E3
:104EB4009A750299039B1A1D002300930423074843
:104EC40000F0CDFF0590059B002B01D1002300E0ED
:104ED4000E23184607B05DF804FB00BFE020002055
:104EE40000B587B003900291039B1B69002B01D08E
:104EF400032200E00122039B9A75029B08331946A2
:104F0400039B03F10C02002300930423064800F0E2
:104F1400A6FF0590059B002B01D1002300E00E2382
:104F2400184607B05DF804FBE020002000B587B008
:104F340003900291039B1B78032B01D1052200E00F
:104F44000622039B9A75029B04331946039B03F1C3
:104F54000802002300930423064800F080FF059014
:104F6400059B002B01D1002300E00E23184607B057
:104F74005DF804FBE020002000B587B003900B46E9
:104F8400ADF80A3003990023009304230C4A0D481A
:104F940000F065FF0590059B002B01D00E230BE06C
:104FA400BDF80A20084913469B0013449B000B4498
:104FB400103301221A700023184607B05DF804FB71
:104FC400900C0300E02000208822002000B589B066
:104FD400019002AB00221A605A609A60019BDB6860
:104FE40002930DF1160202AB11461846FFF736FE86
:104FF4000346002B12D0039B0693069B9A88019BC1
:10500400DA80069B1A88019B1A81039BBDF816203F
:1050140011461846FFF7B0FF079001E00A230793F3
:10502400079B184609B05DF804FB000000B587B083
:105034000190019B981D02AA0D4B0021FFF768FE09
:105044000590059B002B08D1039A094B9B881946B0
:105054001046FFF791FF059004E008220021044860
:105064000BF0F0FC059B184607B05DF804FB00BF8D
:10507400C822002000B587B003900291039B01224F
:105084009A75029B0C331846039B1A69039BDB88B1
:105094009900002300930B460146074800F0DFFE09
:1050A4000590059B002B01D1002300E00E23184638
:1050B40007B05DF804FB00BFE020002082B0174B6E
:1050C4001B8901339AB2154B1A81144B00225A8062
:1050D400124B00221A730023ADF8063017E0BDF816
:1050E4000610BDF806200E4813469B0013449B008F
:1050F40003441B78002B0CBF01230023DAB2074BB7
:105104000B449A72BDF806300133ADF80630BDF891
:105114000630012BE3D900BF02B07047B82200204B
:105124008822002084B0019000238DF80F300023E2
:10513400ADF80C3031E0BDF80C301C4A13449B7AB6
:10514400002B25D0BDF80C30184A134400229A7263
:10515400BDF80C20164913469B0013449B000B44D6
:105164000C331B68002B13D1BDF80C2010491346D7
:105174009B0013449B000B4410331B78002B07D077
:10518400019BBDF80C201A8001238DF80F3008E034
:10519400BDF80C300133ADF80C30BDF80C30012BE8
:1051A400C9D99DF80F30184604B07047B8220020C2
:1051B4008822002008B5084B05221A70074B0222EA
:1051C4009A80064B1B68194600230122044800F00C
:1051D40098FE0346184608BDB8220020B0220020DD
:1051E400E020002000B583B0164B5B88ADF8023098
:1051F400BDF80220144913469B0013449B000B4442
:105204000C331B68002B14D10E4B04221A70BDF80A
:1052140002200D4913469B0013449B000B440433A6
:105224001B68194600230122084800F06AFE019019
:1052340002E0FFF7BFFF0190019B184603B05DF841
:1052440004FB00BFB822002088220020E0200020B8
:1052540000B587B0114B5B680593114B1A68104B6E
:105264009B889B0013440493059B5B880333ADF830
:105274000E300A4B03221A700499084B5A68BDF881
:105284000E309800002300930346064800F0E7FD23
:105294000346184607B05DF804FB00BFB82200209F
:1052A400B0220020E020002000B583B00A4B5B88C8
:1052B4000A491846FFF780FC0346002B03D0FFF78A
:1052C400C7FF019002E0FFF78DFF0190019B184694
:1052D40003B05DF804FB00BFB8220020BC2200200C
:1052E40008B50A4B06221A70084B5B881946084A0F
:1052F4000B469B000B449B00134404331B68184665
:10530400FFF7ACFB0346184608BD00BFB8220020D7
:105314008822002008B5054B07221A70034B00228F
:105324005A60FFF783FB0346184608BDB8220020E5
:1053340008B50D48FFF7F6FE034683F00103DBB220
:10534400002B0BD0094B00221A70084B00225A8004
:10535400064B00225A6041F61D5302E0FFF7A4FFFA
:105364000346184608BD00BFBA220020B822002018
:1053740082B0094B5B680193019B5B880333ADF8F2
:105384000230064B9A88BDF8023013449AB2034B9C
:105394009A8000BF02B07047B8220020B0220020DB
:1053A40082B0184B1B680193174B5B881946174A48
:1053B4000B469B000B449B00134404331B68114AA7
:1053C4001360114B5B881946104A0B469B000B4433
:1053D4009B0013440433019A1A600B4B5B881946F3
:1053E400084B9888094A0B469B000B449B001344C6
:1053F400083302461A80034B02229A8000BF02B08F
:10540400704700BFB0220020B8220020882200206C
:1054140008B51A4B1B78072B2CD801A252F823F09D
:105424004554020079540200795402005154020098
:105434005D54020069540200695402007154020070
:10544400FFF73CFE0D4B01221A7014E0FFF790FFAA
:105454000A4B02221A700EE0FFF7A2FF074B062246
:105464001A7008E0054B07221A7004E0034B01226E
:105474001A7000E000BF00BF08BD00BFB8220020C2
:1054840000B587B0019000910F230593019B002B79
:1054940004D0624B00225A600123BBE0009B1B79BD
:1054A400032B00F2AB8001A252F823F0C154020096
:1054B400CF5402005D5502007D550200009B01227D
:1054C4001A71FFF7B3FA05909BE000238DF81330AF
:1054D4000023ADF810302BE0BDF8102050491346DE
:1054E4009B0013449B000B441B78022B1BD1BDF87B
:1054F40010204B4913469B0013449B000B4400228D
:105504001A7001238DF81330BDF810204449134656
:105514009B0013449B000B4404331B681846FFF79D
:105524009DFA059008E0BDF810300133ADF8103055
:10553400BDF81030012BCFD99DF8133083F001034F
:10554400DBB2002B5CD0354B01221A70334B0022A6
:105554005A6041F61D535DE0009B00221A71314BE5
:1055640002229A802F4B1B681946002301222E48E1
:1055740000F0C7FC059044E0009B00221A71294BFF
:105584001B681846FFF76AFA0590284B5B88ADF84C
:105594000E30244B1B680293BDF80E20204913469D
:1055A4009B0013449B000B4404331B681D4A136087
:1055B400BDF80E201A4913469B0013449B000B446C
:1055C4000433029A1A60BDF80E20164B98881449C9
:1055D40013469B0013449B000B44083302461A8075
:1055E400104B02229A80BDF80E200D4913469B00F1
:1055F40013449B000B4400221A7002E000BF00E039
:1056040000BF059B002B04D0044B00225A600E23DC
:1056140000E00023184607B05DF804FB5822002080
:1056240088220020B0220020E0200020B8220020A0
:1056340000B587B001900091009B9B8A1A461346DF
:105644009B0013449B003C4A13440493019B002B8E
:1056540007D0009BDB8819460498FFF7CBF9012398
:1056640065E0049B5A68049B1B899B0013440393C5
:10567400009B9B7D062B4DD801A252F823F000BF5E
:10568400C7560200EB560200D3560200DF56020052
:10569400A1560200F756020011570200274B0022C0
:1056A4005A60009B9B69254A136025492348FFF7EC
:1056B400D5FA034683F00103DBB2002B01D00A23A1
:1056C40035E003990098FFF7EDFB059025E0039979
:1056D4000098FFF705FC05901FE003990098FFF779
:1056E400C9FC059019E003990098FFF71FFC059089
:1056F40013E0009B06229A75104B5A68104B1B88C6
:1057040019461046FFF738FC059006E041F61D5394
:10571400059302E00F23059300BF059B002B05D0E2
:10572400009BDB8819460498FFF764F9059B18462B
:1057340007B05DF804FB00BF88220020D0220020BF
:10574400DC22002000B585B001900091019B002B64
:1057540001D0012323E0009B1B79012B0BD0022BEA
:1057640014D0002B16D1009B02221A710098FFF767
:105774002DFC039012E00098FFF758FC0390039B64
:105784000A2B0AD141F61D53039306E041F61D533B
:10579400039303E00F23039300E000BF039B184629
:1057A40005B05DF804FB000000B585B00190019BD5
:1057B400002B01D001233BE01F4B1B7B002B03D0AC
:1057C4001D4B00221A7301E0FFF722FE1A4B1B78CF
:1057D400013B062B28D801A252F823F0FD57020002
:1057E400055802000D580200155802002D580200F9
:1057F4001D58020025580200FFF79AFD039016E099
:10580400FFF752FD039012E0FFF722FD03900EE034
:10581400FFF7E8FC03900AE0FFF762FD039006E05F
:10582400FFF778FD039002E00F23039300BF039B6F
:10583400184605B05DF804FBB822002000B589B015
:1058440001903F4B1B68002B05D13E48FFF7F2FA4D
:1058540002463B4B1A603A4B1B68002B04D13A4971
:1058640040F27950FEF719FC354B1B681B78013B5D
:10587400052B2CD801A252F823F000BF995802003E
:10588400A9580200A9580200B9580200B9580200E8
:10589400C95802002A4B1B6819460198FFF7F0FD0E
:1058A400019017E0264B1B6819460198FFF7C0FECC
:1058B40001900FE0224B1B6819460198FFF742FF45
:1058C400019007E00198FFF76FFF019002E00F23BA
:1058D400019300BF019B002B2BD003AB14220021AA
:1058E40018460BF0AFF8019B41F61D52934204D1C8
:1058F400002304930023019301E0019B0493104BC4
:105904001B6803AA11461846FEF732FF03AB18467C
:10591400FEF710FF0A4B00221A600A48FFF79AFAB2
:10592400FFF7A6FA034683F00103DBB2002B02D192
:1059340087E700BF00E000BF00BF09B05DF804FBCB
:10594400E0220020E4220020380C030008B50121E5
:105954000548FEF7A6FE0346002B02D10020FFF700
:105964006DFF00BF08BD00BF6022002000B583B0FA
:105974000190019B5B681846FFF760FF00BF03B00E
:105984005DF804FB00B58BB00390029101928DF891
:1059940003300023ADF824300023ADF82630514BFA
:1059A4001B78DBB283F00103DBB2002B01D00223AE
:1059B40093E0029B002B01D105238EE0029B1B8800
:1059C4004FF6FF72934203D0029B5B88002B01D1F8
:1059D400042382E0029B5B681846FEF755FE0346EB
:1059E40083F00103DBB2002B01D0032375E0019B9C
:1059F400002B11D1029B9B68ADF826300DF11A02E1
:105A0400BDF8263011461846FFF73CF80890089B6D
:105A1400002B09D0089B60E0019B1B88ADF81A306D
:105A2400019B5B88ADF8263005AB1846FFF7DEF91D
:105A34000790079B002B09D1BDF81A20BDF826302A
:105A440011461846FFF786F8082346E0079B9DF8A1
:105A540003201A70079B00229A75BDF81A20079B31
:105A64009A82029B5A68079B1A61FFF79BF80246C9
:105A7400079BDA60029B1A88079B1A81029B5A884B
:105A8400079B9A80079BBDF82620DA809DF8033097
:105A9400032B06D1079B04229A75039B1A68079B64
:105AA4009A61079BBDF824205A8105AB1846FFF77D
:105AB400B3F9039B002B0DD0039B00225A60079B74
:105AC400DA68039B1A60039B00229A72064B1A89B8
:105AD400039B1A81FFF73AFF002318460BB05DF8C9
:105AE40004FB00BF58220020B822002000B585B076
:105AF40001900091019B002B02D0009B002B01D14F
:105B0400052329E00DF10A0319460198FFF7A6F8C9
:105B14000346002B1FD0019B5B680393BDF80A303A
:105B24001A4613469B0013449B0008330C4A134443
:105B3400043301211846FEF7CCFD009B039A1A603A
:105B4400019B5B6803F10C02009B5A60019B0122DC
:105B54009A72002300E00A23184605B05DF804FB9E
:105B64008822002000B585B00190019B002B01D153
:105B7400052339E00DF10A0319460198FFF76EF881
:105B84000346002B2DD0BDF80A301946184A0B469F
:105B94009B000B449B0013440C331B68002B1DD04B
:105BA400019B9B7A002B19D0BDF80A301A46104984
:105BB40013469B0013449B000B440C331B68591E73
:105BC4000B4813469B0013449B0003440C33196099
:105BD400019B00229A720023039304E0062303939B
:105BE40001E00A230393039B184605B05DF804FB08
:105BF4008822002000B585B001900B46ADF8023034
:105C0400134B1B78DBB283F00103DBB2002B01D012
:105C1400022319E0019B002B01D1052314E00DF1AF
:105C24000A02BDF8023011461846FEF72BFF039016
:105C3400039B002B07D1BDF80A20019B1A80019B0E
:105C4400BDF802205A80039B184605B05DF804FB9A
:105C54005822002000B585B001901F4B1B78DBB2A1
:105C640083F00103DBB2002B01D002232FE0019B60
:105C7400002B01D105232AE0019B1B88022B01D9AB
:105C8400042324E0019B1B881A4613469B001344FB
:105C94009B00124A13440293019B5B880333029ACC
:105CA4005289934210DC019B5A88019B1B88194638
:105CB4001046FEF74FFF019B00221A80019B002231
:105CC4005A800023039301E004230393039B1846A3
:105CD40005B05DF804FB00BF582200208822002094
:105CE40000B583B00190009102230022009901982D
:105CF400FFF748FE0346184603B05DF804FB00B501
:105D040085B0039002910192019B002B01D10523E0
:105D140006E00223019A02990398FFF733FE034633
:105D2400184605B05DF804FB00B583B001900091FE
:105D3400019B002B01D1052306E0032300220099D7
:105D44000198FFF71FFE0346184603B05DF804FBF5
:105D540000B585B00346ADF80630184B1B78DBB2AE
:105D640083F00103DBB2002B01D0022322E0BDF853
:105D740006304FF6FF72934201D104231AE002ABBE
:105D84001846FFF733F80390039B002B01D1082337
:105D940010E0039B05221A70039B01221A71039BD6
:105DA400BDF80620DA8002AB1846FFF735F8FFF796
:105DB400CDFD0023184605B05DF804FB58220020F1
:105DC40000B585B0029201930346ADF80E300B4640
:105DD400ADF80C3003A90DF10E00019B029AFEF7F9
:105DE40097FF0346184605B05DF804FB00B585B07F
:105DF400034602910192ADF80E300DF10E01019BA4
:105E0400029A0020FEF784FF0346184605B05DF8A9
:105E140004FB00B585B0034602910192ADF80E3043
:105E24000DF10E00019B029A0021FEF771FF03465B
:105E3400184605B05DF804FB82B001900091019B07
:105E4400002B02D0009B002B01D1052304E0019B11
:105E54001A68009B1A600023184602B0704710B5F8
:105E640086B00590049103920293059B002B02D007
:105E7400039B002B01D10E2340E0059B1B68002BE4
:105E840001D108233AE0029B002B0AD0059B5B68F2
:105E94005A68029BB3FBF2F102FB01F29B1A002B3E
:105EA40001D009232AE0049800F082F8034683F025
:105EB4000103DBB2002B14D1039B184600F078F8E1
:105EC400034683F00103DBB2002B0AD1029A049942
:105ED400059800F053F8034683F00103DBB2002B6E
:105EE40001D010230AE0059B1B68DC68089B009323
:105EF400029B039A04990598A0470346184606B0E6
:105F040010BD10B584B00390029101920093039BDD
:105F1400002B01D10E232EE0039B1B68002B01D123
:105F2400082328E0019B002B01D1092323E0039BD4
:105F34005B681B685A1E029B1340002B10D1039B05
:105F44005B681B68019A02FB03F31A4602990398E3
:105F540000F014F8034683F00103DBB2002B01D0F8
:105F6400102308E0039B1B681C69009B019A02999B
:105F74000398A0470346184604B010BD84B00390AC
:105F840002910192039BDA68029B9A4209D8029A11
:105F9400019B13445A1E039B1B699A4201D8012397
:105FA40000E0002303F00103DBB2184604B070479D
:105FB40082B00190019B03F00303002B0CBF01236B
:105FC4000023DBB2184602B07047000082B00346DB
:105FD4008DF8073008499DF907305B099DF80720C3
:105FE40002F01F02012000FA02F2203341F82320BC
:105FF40000BF02B0704700BF00E100E082B0019032
:106004004FF08042019BC2F8083300BF02B07047D2
:1060140082B003468DF807309DF8073003F18043C2
:1060240001221A6000BF02B0704784B00346ADF885
:106034000630BDF8063003F1804300221A60BDF833
:10604400063003F180431B680393039B00BF04B035
:10605400704782B00346ADF80630BDF8063003F150
:1060640080431B68002B14BF01230023DBB21846B6
:1060740002B0704782B003468DF807304FF080427B
:106084009DF8073003F00303C2F8183500BF02B0CF
:1060940070474FF08043D3F818341B0C03F001030E
:1060A400002B14BF01230023DBB218467047000005
:1060B40082B003468DF807300A4A9DF907305B0920
:1060C40052F823209DF8073003F01F03012101FA41
:1060D40003F31340002B14BF01230023DBB2184643
:1060E40002B0704700E100E008B50020FFF7E0FFD0
:1060F400034683F00103DBB2002B03D00721002009
:1061040000F096F900BF08BD08B509F049F9034647
:1061140083F00103DBB2002B03D109498420FDF78E
:10612400BCFF0C20FFF774FF00BFFFF7B2FF03466C
:10613400002BFAD1034B00229A7000BF08BD00BFA8
:10614400940C0300E822002000B583B000230193DF
:10615400134B1B78002B02D0852301931BE0104BBB
:1061640000229A600E4B00225A600D4B00221A61E5
:106174000B4B0022DA60FFF7B7FF09F011F9034671
:1061840083F00103DBB2002B02D00120FFF772FF82
:10619400034B01221A70019B184603B05DF804FBFF
:1061A400E822002084B00190019B1B680393039BA9
:1061B400002B03D0039B1A68019B1A60039B1846AB
:1061C40004B0704700B583B0164B1B78002B04D184
:1061D40015494FF48E70FDF760FF124BDB68002BFE
:1061E40004D1114940F21D10FDF757FF00238DF82B
:1061F40007300DF107031846FDF702FF094BDB6872
:10620400013B084AD360074BDB68002B01D1FFF741
:106214007BFF9DF807301846FDF708FF00BF03B069
:106224005DF804FBE8220020940C030000B585B05F
:1062340003468DF807309DF80730002B02D10C4B34
:10624400039301E00B4B03930398FFF7ABFF02901A
:10625400029B002B06D0029B5B689DF8072010462A
:106264009847F1E700BF00BF05B05DF804FB00BF2D
:10627400F0220020F822002008B54FF48070FFF7C8
:10628400E8FE0346002B0CD04FF48070FFF7CDFEE0
:106294000120FFF7B3FE0E4B01225A700020FFF7D6
:1062A400C5FF4FF48270FFF7D4FE0346002B0CD0D9
:1062B4004FF48270FFF7B9FE0220FFF79FFE044BF4
:1062C40001229A700120FFF7B1FF00BF08BD00BF93
:1062D400E822002000B583B001900091019B002BBF
:1062E40002D10020FFF7A2FF00BF03B05DF804FB5A
:1062F40000B585B0034600918DF807309DF807304E
:10630400012B08D0032B25D0002B00D032E0002035
:10631400FFF75CFE2EE000238DF80F300DF10F0324
:106324001846FDF76DFE154B1B7883F00103DBB2B5
:10633400002B01D0FFF708FF104BDB6801330F4A35
:10634400D3600E4B01229A709DF80F301846FDF76A
:106354006DFE0FE0094B1B78002B04D1084940F275
:106364005B20FDF79AFE0721002000F061F8FFF79B
:1063740029FF00BF00BF05B05DF804FBE822002040
:10638400940C030082B003468DF8073007499DF949
:1063940007305B099DF8072002F01F02012000FA74
:1063A40002F241F8232000BF02B0704700E100E090
:1063B40082B003468DF8073008499DF907305B0920
:1063C4009DF8072002F01F02012000FA02F2603358
:1063D40041F8232000BF02B0704700BF00E100E095
:1063E40082B0034600918DF807309DF90730002BE9
:1063F4000CDA0D499DF8073003F00F03043B009AB3
:10640400D2B25201D2B20B441A7609E007499DF97F
:106414000730009AD2B25201D2B20B4483F800235F
:1064240000BF02B0704700BF00ED00E000E100E0F3
:1064340000B583B003460A468DF8073013468DF83D
:1064440006309DF80630012B03D99DF80630032B46
:106454000CD99DF80630042B03D99DF80630072B80
:1064640004D90D494FF49270FDF717FE9DF80620EC
:106474009DF9073011461846FFF7B2FF9DF9073022
:106484001846FFF795FF9DF907301846FFF77AFF86
:1064940000BF03B05DF804FBE80C030082B0019078
:1064A4000B468DF803309DF80330019A1344012202
:1064B4001A6000BF02B0704784B001900B46ADF87B
:1064C4000230BDF80230019A134400221A60BDF86C
:1064D4000230019A13441B680393039B00BF04B06A
:1064E400704782B001900B46ADF80230BDF802301F
:1064F400019A13441B68002B14BF01230023DBB251
:10650400184602B0704782B001900091019B009A36
:10651400C3F8042300BF02B0704782B00190009119
:10652400019B009AC3F8082300BF02B0704782B0F1
:106534000190019B0522C3F8002500BF02B07047FB
:1065440082B00190019B0022C3F8002500BF02B075
:10655400704784B0039002910192039B029AC3F89E
:106564000825039B019AC3F80C2500BF04B07047AB
:1065740082B001900091019B009AC3F8242500BFCA
:1065840002B0704784B00190019BD3F8C4340393E4
:10659400019B039AC3F8C424039B184604B07047B4
:1065A40082B001900B468DF803309DF80320019BC7
:1065B400C3F8882500BF02B0704782B00190019BE8
:1065C400D3F81835DBB2184602B0704782B0019098
:1065D4000B468DF803309DF80320019BC3F81C255E
:1065E40000BF02B0704782B001900091019B009AF5
:1065F400C3F8002200BF02B0704784B00190019B31
:106604001B0B8DF80F309DF90F30184604B07047FE
:1066140000B583B00190019B1B681F2B04D9054969
:106624004FF4E870FDF739FD4FF0A043184603B06E
:106634005DF804FB400D030000B585B0019001AB8B
:106644001846FFF7E5FF0390019B012202FA03F3CA
:106654001946039800F035F800BF05B05DF804FB57
:1066640000B585B0019001AB1846FFF7D1FF039048
:10667400019B012202FA03F31946039800F02BF858
:1066840000BF05B05DF804FB00B585B0019001AB17
:106694001846FFF7BDFF0390039800F00AF802467E
:1066A400019B22FA03F303F00103184605B05DF8D9
:1066B40004FB82B00190019BD3F81035184602B058
:1066C400704782B001900091019B009AC3F808259D
:1066D40000BF02B0704782B001900091019B009A04
:1066E400C3F80C2500BF02B07047000084B00190CD
:1066F400244B0393019B002B40D0234B1A6803992E
:10670400019B00BF00BF00BF00BF00BF00BF00BFB0
:1067140000BF8A422FD000BF00BF00BF00BF00BF30
:1067240000BF00BF00BF00BF00BF00BF00BF00BF6D
:1067340000BF00BF00BF00BF00BF00BF00BF00BF5D
:1067440000BF00BF00BF00BF00BF00BF00BF00BF4D
:1067540000BF00BF00BF00BF00BF00BF00BF00BF3D
:1067640000BF00BF00BF00BF00BF00BF00BF00BF2D
:1067740000BF00BF00BF013BC3D1019300BF04B001
:10678400704700BF0024F4000821002084B0019069
:1067940003230393019B03F00103002B02D04FF466
:1067A40002430393019B03F00203002B02D048F23F
:1067B40001230393019B03F00403002B02D048F24E
:1067C40002230393039B184604B0704700B585B0B9
:1067D40001904FF0A042019B1B6803F5E07340F267
:1067E4000C6142F823104FF0A042019B5B6803F553
:1067F400E07340F20C6142F82310019B1B681846B9
:10680400FFF71AFF019B5B681846FFF715FF4FF06F
:10681400A042019B1B6803F5E07340F20D6142F84E
:1068240023104FF0A042019B5B6803F5E07340F234
:106834000D6142F823100420FFF758FF002303934F
:106844001EE0019B5B681846FFF71EFF0346002B02
:1068540003D0039B002B17D124E0019B1B6818462F
:10686400FFF7FEFE0420FFF741FF019B1B6818465B
:10687400FFF7E2FE0420FFF739FF039B0133039384
:10688400039B082BDDDD00E000BF019B5B6818461D
:10689400FFF7E6FE0420FFF729FF019B5B6818461B
:1068A400FFF7CAFE05B05DF804FB000000B589B02F
:1068B4000390029101920093029B002B03D13F4964
:1068C400F520FDF7EAFB029B1A68029B5B689A427B
:1068D40003D13A49F620FDF7E0FB039B1B791A46E6
:1068E40013469B001344DB00354A13440793079B6C
:1068F40093F82230002B03D008230693069B59E01B
:10690400079B019A1A60079B009A5A60079B002212
:106914009A60079B002283F82520079B002283F8B6
:106924002420029B9A7B079B83F82720029B5B7B96
:10693400002B02D00298FFF749FF4FF0A042029BC0
:106944001B6803F5E07340F20C6142F823104FF02A
:10695400A042029B5B6803F5E07340F20C6142F8CD
:106964002310039B1B680593029B1968029B5B68B9
:106974001A460598FFF7EDFD029B9B68194605989A
:10698400FFF7F6FD079B1B68002B0CD0039B1B68CD
:106994001846FFF732FE03461A46029B1B7B194634
:1069A4001046FFF745FD079B012283F822200023B0
:1069B4000693069B184609B05DF804FB780D0300A6
:1069C400FC22002000B585B00190019B1B791A467A
:1069D40013469B001344DB000D4A13440393039BAB
:1069E40093F82230012B04D00A4940F27710FDF7C6
:1069F40054FB019B1B6802930298FFF798FD039BCD
:106A0400022283F8222000BF05B05DF804FB00BF1A
:106A1400FC220020780D030000B585B0039002919C
:106A2400009313468DF80730009B1B789DF80720D0
:106A34009A4210D9009B1B781A46029B13441B7878
:106A440019460398FFF7C2FD009B1B780133DAB2A5
:106A5400009B1A700DE09DF81830002B05D01C2106
:106A64000398FFF71BFD002304E014210398FFF7AC
:106A740015FD0123184605B05DF804FB10B584B07C
:106A840003900291009313468DF80730009B1B7806
:106A94009DF807209A4228D9009B1B781A46029B2E
:106AA4009C180398FFF789FD03462370009B1B780D
:106AB4000133DAB2009B1A70009B1B781A469DF8CA
:106AC4000730013B9A4204D102210398FFF78BFD62
:106AD40005E0009B1B789DF807209A4204D02021F2
:106AE4000398FFF7DBFC00E000BF04B010BD00B565
:106AF40089B00590049103920293049B1B78002BA8
:106B040005D1039B1B789DF828209A4201D10123CB
:106B140000E000238DF81F309DF81F3003F00103BF
:106B24008DF81F30049B1B78002B0FD04FF492710B
:106B34000598FFF7C1FC4FF48E710598FFF7BCFC74
:106B44004FF484710598FFF7B7FC71E04FF492712C
:106B54000598FFF7C6FC0346002B0CD04FF4927146
:106B64000598FFF7A9FC14210598FFF797FC049BEF
:106B740001221A705CE04FF48E710598FFF7B1FCA6
:106B84000346002B2BD04FF48E710598FFF794FC2D
:106B94004FF492710598FFF7A4FC0346002B0CD028
:106BA4004FF492710598FFF787FC14210598FFF7BD
:106BB40075FC049B01221A703AE09DF828209DF888
:106BC4002C300093039B02990598FFF725FF034699
:106BD40083F00103DBB2002B2AD000233CE04FF406
:106BE40084710598FFF77DFC0346002B20D04FF4F9
:106BF40084710598FFF760FC4FF492710598FFF7D4
:106C040070FC0346002B0CD04FF492710598FFF7EB
:106C140053FC14210598FFF741FC049B01221A70D0
:106C240006E09DF82820039B02990598FFF726FFAC
:106C34009DF81F30002B0ED04FF482710598FFF79A
:106C440050FC0346002B06D04FF482710598FFF7E1
:106C540033FC002300E00123184609B05DF804FB6F
:106C640000B58BB00590049103928DF80B3000238E
:106C7400099342F2107307934FF482710498FFF75B
:106C84001BFC4FF492710498FFF716FC4FF48E71BD
:106C94000498FFF711FC4FF484710498FFF70CFC7F
:106CA40000210498FFF79FFC059B002283F826200F
:106CB400059B002283F8232020210498FFF7EEFB94
:106CC40008210498FFF7EAFB059B03F126019DF8D0
:106CD4000B209DF8303000930B4603990498FFF77E
:106CE4009BFE059B1B68002B0DD0059B40F2862262
:106CF4009A60059B9B6819460498FFF704FC33E0EF
:106D0400079B013B0793079B002B12DD059B03F1B7
:106D14002301059B03F126029DF8303001939DF871
:106D24000B300093039B0498FFF7E1FE0346002B0E
:106D3400E6D1059B93F82330002B0AD00498FFF783
:106D440021FC0890089B002B03D00898FFF71EFD38
:106D54000990079B002B07DC0498FFF7F1FB0498CC
:106D6400FFF7E5FB03230993099B18460BB05DF875
:106D740004FB00B58BB00590049103928DF80B30A1
:106D84000023099342F2107307934FF4827104981D
:106D9400FFF792FB4FF492710498FFF78DFB4FF4C9
:106DA4008E710498FFF788FB4FF484710498FFF701
:106DB40083FB059B002283F82620059B002283F891
:106DC40023209DF80B30012B04D102210498FFF7F6
:106DD4000AFC03E001210498FFF705FC2021049834
:106DE400FFF75CFB00210498FFF758FB059B1B6829
:106DF400002B0DD0059B40F286229A60059B9B6870
:106E040019460498FFF77FFB32E0079B013B079389
:106E1400079B002B11DD059B03F12301059B03F167
:106E24002602002301939DF80B300093039B0498E2
:106E3400FFF75DFE0346002BE7D1059B93F8233053
:106E4400002B0AD00498FFF79DFB0890089B002BA9
:106E540003D00898FFF79AFC0990079B002B07DCE6
:106E64000498FFF76DFB0498FFF761FB0323099374
:106E7400099B18460BB05DF804FB00B589B005907A
:106E8400049103920293002307934FF0FF31049877
:106E9400FFF743FB059B93F82430DBB2002B09D0AA
:106EA400059B9B6819460498FFF72DFB1123079354
:106EB400079B66E0029B03F00403002B0CBF012335
:106EC4000023DAB2059B83F82420029B03F0080315
:106ED400002B03D006230793079B52E0059B029ADD
:106EE4009A61059B039A0C3307CA83E80700039B46
:106EF4009A78059B83F82020039B5A68059BDA61E6
:106F0400039B5B7819460498FFF74AFB039B1B78A5
:106F1400012B20D0039B1B78002B04D1029B03F090
:106F24002003002B01D0012300E0002303F0010320
:106F3400DAB2059B83F82120039B5A68039B997856
:106F4400059B93F8213000930B4604990598FFF7AD
:106F540087FE07900CE0059B002283F82120039B09
:106F64005A68039B9B7804990598FFF702FF0790E2
:106F7400059B1B68002B03D1059B002283F824206A
:106F8400079B184609B05DF804FB000000B587B004
:106F940003900291019200230593039B1B791A46E7
:106FA40013469B001344DB00194A13440493049BC7
:106FB4001B68002B08D1029B1B78022B04D11549B6
:106FC40040F2B730FDF769F8049B1B68002B08D129
:106FD400029B1B78032B04D10E494FF46E70FDF70E
:106FE4005CF8019B03F00303002B03D006230593F5
:106FF400059B08E0039B1968019B029A0498FFF71C
:107004003CFF0590059B184607B05DF804FB00BFE4
:10701400FC220020780D030000B589B00390019292
:107024001A460B468DF80B3013468DF80A3005AB23
:1070340000221A605A609A609DF80B308DF8153062
:107044009DF80A308DF81630019B06939DF8283080
:10705400002B01D0202200E0002205AB1946039842
:10706400FFF794FF0346184609B05DF804FB00B52A
:1070740089B0039001921A460B468DF80B301346E3
:107084008DF80A3005AB00221A605A609A60012319
:107094008DF814309DF80B308DF815309DF80A30BA
:1070A4008DF81630019B069305AB00221946039810
:1070B400FFF76CFF0346184609B05DF804FB0000B7
:1070C40010B58AB003900291029B1B68002B04D177
:1070D4004E4940F29340FCF7E0FF029B03F1230189
:1070E400029B03F12600029BDC69029B93F820308B
:1070F400029A92F8212001920093234602460398B3
:10710400FFF7F5FC0346002B7DD1029B93F8233057
:1071140083F00103DBB2002B3FD0029B1B7B022BCD
:1071240003D0029B1B7B032B37D1029BDA69029BA2
:107134001B699A4231D1029B5A69029BDA61029B14
:10714400DA7B029B83F82020029B9B6903F02003D7
:10715400002B14BF01230023DAB2029B83F8212001
:10716400029B1B7B032B0ED1029BDA69029B93F8D3
:107174002010029B93F8213000930B460399029848
:10718400FFF76EFD40E0029BDA69029B93F8203022
:1071940003990298FFF7EDFD36E0029A06AB0C3234
:1071A40007CA83E80700029B93F82330002B15D00D
:1071B4000398FFF7E7F90990099B03F00203002BFA
:1071C40003D001238DF814300BE0099B03F0040372
:1071D400002B06D002238DF8143002E000238DF832
:1071E4001430029B002283F82420029B9B6903F045
:1071F4000403002B08D1029B1B68029A516805AA5C
:107204001046984700E000BF0AB010BD780D030097
:1072140008B503490348FFF753FF00BF08BD00BF8B
:10722400FC2200200030004082B003468DF8073075
:1072340008499DF907305B099DF8072002F01F02F9
:10724400012000FA02F2203341F8232000BF02B0EB
:10725400704700BF00E100E082B003468DF80730BC
:1072640008499DF907305B099DF8072002F01F02C9
:10727400012000FA02F2403341F8232000BF02B09B
:10728400704700BF00E100E082B003468DF807308C
:107294009DF8073003F1804303F5E83301221A60B7
:1072A40000BF02B0704782B00346ADF80630BDF8A7
:1072B400063003F1804303F5E8331B68002B14BF49
:1072C40001230023DBB2184602B0704784B00346A2
:1072D400ADF80630BDF8063003F1804303F5E8331A
:1072E40000221A60BDF8063003F1804303F5E83349
:1072F4001B680393039B00BF04B07047024B012239
:10730400C3F8002500BF704700D00140024B0022A3
:10731400C3F8002500BF704700D0014082B001903F
:107324000091054A019BC2F86035034A009BC2F8EC
:10733400643500BF02B0704700D0014000B583B08F
:1073440003468DF807309DF907301846FFF76CFFA8
:1073540000BF03B05DF804FB00B58BB04FF4807040
:10736400FFF7A1FF0346002B68D04FF48070FFF7AE
:10737400ADFF6C4B9B7C8DF827306A4B9B7C03F0F4
:107384000103002B0CBF01230023DBB28DF8263050
:107394009DF82630634A9B0013445B68002B04D19C
:1073A400604B5B7CDBB2022B2BD100238DF82030A9
:1073B4005C4B0022DA745B4B5B7CDBB2022B05D1A5
:1073C40000230793574B01225A7411E09DF827308C
:1073D400544A9B0013445B6807939DF82730514A35
:1073E4009B00134400225A604E4A9DF82630937441
:1073F40001238DF818304B4B1B6806AA104698479A
:1074040013E0484BDB7C002B0FD101238DF8203097
:107414000023079300238DF81830424B0122DA74BD
:10742400404B1B6806AA104698473E4B5B7CDBB278
:10743400022B5DD13B4B01225A7459E04FF4827008
:10744400FFF731FF0346002B52D04FF48270FFF751
:107454003DFFFFF75BFF334B00225A7400238DF886
:10746400143000238DF80C302E4B9B7C2D4A9B004E
:1074740013445B68002B12D02A4B9B7C294A9B0047
:1074840013445B680493274B9B7C264A9B0013445C
:1074940000225A60234B1B6803AA10469847214BCD
:1074A4009B7C03F00103002B0CBF01230023DBB200
:1074B4008DF825309DF825301A4A9B0013445B68EB
:1074C400002B12D09DF82530164A9B0013445B68AC
:1074D40004939DF82530134A9B00134400225A60FC
:1074E400104B1B6803AA104698470E4B00229A744F
:1074F4000C4B5B7DDBB2002B0FD0002301930023E8
:107504008DF8083001238DF80030064B00225A759F
:10751400044B1B686A461046984700BF0BB05DF8E1
:1075240004FB00BF2423002008B5074B02221A7471
:10753400FFF7E4FE4FF48070FFF7C8FE0020FFF76A
:10754400A3FE00BF08BD00BF2423002008B5044BE0
:1075540001225A751D20FFF77FFE00BF08BD00BF42
:107564002423002000B583B0134B1B7C002B04D1D3
:1075740012494FF48570FCF790FD0F4B5B7CDBB236
:10758400002B0CD00C4B5B7CDBB2012B03D1002312
:107594000193019B0BE011230193019B07E0064B30
:1075A40002225A74FFF7D2FF00230193019B18466D
:1075B40003B05DF804FB00BF24230020080E030081
:1075C40000B585B001900B46ADF802302F4B1B7C03
:1075D400002B01D1082355E02C4B5B7CDBB2032B41
:1075E40001D111234EE0019B002B03D0BDF90230E1
:1075F400002B01DA072345E0002303931D20FFF746
:107604009DFE224B9B7C03F00103002B0CBF012346
:107614000023DBB28DF80B301C4B5B7CDBB2022BFE
:1076240002D100238DF80B309DF80B30174A9B00D4
:1076340013445B68002B02D0112303931BE09DF8D5
:107644000B30124A9B001344019A5A609DF80B3088
:107654000E4A04335B001344BDF802209A80BDF83F
:10766400023019460198FFF759FE084B1B7C022B88
:1076740001D0FFF759FF054B1B7D19461D20FEF76E
:10768400D7FE039B184605B05DF804FB24230020B5
:1076940000B583B01A4B1B7C002B04D1194940F26E
:1076A4005310FCF7FAFC164B5B7CDBB2012B16D0B3
:1076B400134B5B7CDBB2002B04D0114B5B7CDBB245
:1076C400022B08D1FFF722FE0D4B00225A7400232F
:1076D4000193019B0FE011230193019B0BE0084BE5
:1076E40001221A74064B03225A740420FFF7CCFDBE
:1076F40000230193019B184603B05DF804FB00BF0F
:1077040024230020080E030082B003468DF80730BE
:1077140008499DF907305B099DF8072002F01F0214
:10772400012000FA02F2603341F8232000BF02B0C6
:10773400704700BF00E100E073DF704700BF1846E8
:1077440076DF704700BF18467ADF704700BF1846DF
:107754007CDF704700BF18467FDF704700BF1846C4
:107764008FDF704700BF1846A0DF704700BF184680
:10777400A2DF704700BF1846A8DF704700BF184655
:10778400A9DF704700BF184662DF704700BF184684
:1077940066DF704700BF184684B00190244B039302
:1077A400019B002B40D0234B1A680399019B00BF17
:1077B40000BF00BF00BF00BF00BF00BF00BF8A42C0
:1077C4002FD000BF00BF00BF00BF00BF00BF00BF7D
:1077D40000BF00BF00BF00BF00BF00BF00BF00BFAD
:1077E40000BF00BF00BF00BF00BF00BF00BF00BF9D
:1077F40000BF00BF00BF00BF00BF00BF00BF00BF8D
:1078040000BF00BF00BF00BF00BF00BF00BF00BF7C
:1078140000BF00BF00BF00BF00BF00BF00BF00BF6C
:1078240000BF013BC3D1019300BF04B0704700BF48
:107834000024F4000821002000B583B00190019BCE
:107844004FF47A7202FB03F31846FFF7A5FF00BF5B
:1078540003B05DF804FB000000B583B00190019B08
:107864001B681F2B04D905494FF4E870FCF715FC7D
:107874004FF0A043184603B05DF804FB580E030014
:1078840000B585B00190084611461A4603468DF8A6
:1078940003300B468DF8023013468DF8013001ABEE
:1078A4001846FFF7D9FF0390019A9DF803109DF83D
:1078B40002305B0019439DF801309B0019439DF889
:1078C40018301B0219439DF81C301B041943039BF9
:1078D40002F5E07243F8221000BF05B05DF804FB26
:1078E40000B585B003900023019300230093002387
:1078F400012201210398FFF7C3FF00BF05B05DF823
:1079040004FB00B585B003900B468DF80B309DF851
:107914000B2000230193002300931346002200212F
:107924000398FFF7ADFF00BF05B05DF804FB00B599
:1079340085B0019001AB1846FFF78EFF0390019BC1
:10794400012202FA03F31946039800F018F800BF65
:1079540005B05DF804FB00B585B0019001AB184695
:10796400FFF77AFF0390019B012202FA03F3194601
:10797400039800F00EF800BF05B05DF804FB82B078
:1079840001900091019B009AC3F8082500BF02B042
:10799400704782B001900091019B009AC3F80C25B6
:1079A40000BF02B0704782B001900091019B009A21
:1079B400C3F8042300BF02B0704782B001900B46A5
:1079C4008DF80330019BD3F8043523F003029DF8AE
:1079D400033003F003031A43019BC3F8042500BFDB
:1079E40002B0704782B001900B468DF80330019BC2
:1079F400D3F8083523F003029DF8033003F00303A2
:107A04001A43019BC3F8082500BF02B0704782B037
:107A140001900B468DF80330019BD3F8103523F009
:107A24000F029DF8033003F00F031A43019BC3F8C0
:107A3400102500BF02B0704730B58BB0744B01AC59
:107A44001D460FCD0FC495E80F0084E80F000220F7
:107A5400FFF746FF00F054F900F018FB00F008FAB5
:107A640000F0E6FA01F0DCF801F0A0F800F0ECFB1D
:107A740000F03CFC00F0D0FD00F052FC00F04AFEA7
:107A840000F080FE00238DF8273008E000F0C0FAF3
:107A940000F0C6FA00F040F9C820FFF7CDFE5D4BB8
:107AA4001B78002BF2D09DF82730012B40F0888002
:107AB400594B1B78103B222B7DD801A252F823F09E
:107AC400517B0200577B02005D7B0200657B020054
:107AD4006B7B0200717B0200777B0200BB7B0200A0
:107AE400BB7B0200BB7B0200BB7B0200BB7B0200B2
:107AF400BB7B0200BB7B0200BB7B0200BB7B0200A2
:107B0400BB7B0200BB7B02007D7B0200BB7B0200CF
:107B1400BB7B0200BB7B0200BB7B0200BB7B020081
:107B2400BB7B0200BB7B0200BB7B0200BB7B020071
:107B3400BB7B0200BB7B0200BB7B0200BB7B020061
:107B44008B7B0200BB7B0200BB7B020000F009F9C7
:107B540032E000F00FF92FE0642000F0E9F82BE0A8
:107B640000F0F6F828E000F05BFA25E000F0D4F825
:107B740022E000F05BF81FE001F0A5F903461A4685
:107B8400264B1A7018E0264B00221A704FF4FD5150
:107B94002448FFF715FDFFF7E5FC00BF204B1B78D9
:107BA400DBB283F00103DBB2002BF7D1FFF770FDEA
:107BB40000F0E6FA00E000BF00238DF827306EE7FE
:107BC4009FED190A00F0DAF900F0A0F8642000F043
:107BD400AFF800F0A7F84FF4FA60FFF72DFE00F0BD
:107BE4008FF800F01DFA00F097F800F011FA00F099
:107BF400B8F8322000F098F900F094F84FF4FA70D5
:107C0400FFF71AFE00F00CFA00F086F847E700BF11
:107C1400900E03006B230020692300204468002099
:107C2400B4670020742800200000FA4400B583B033
:107C340000F072F800238DF8073000238DF8063029
:107C440056E09DF80730184600F09EF89DF807307E
:107C5400052B2ED801A252F823F000BF797C020034
:107C6400857C0200917C0200997C0200A37C0200C6
:107C7400AD7C0200282000F05BF800F047F818E023
:107C8400502000F055F800F03BF812E0A02000F07E
:107C94004FF80EE04FF4A07000F04AF809E04FF4FA
:107CA400207000F045F804E04FF4A06000F040F8C4
:107CB40000BF9DF8073001338DF807309DF8073079
:107CC400062B02D100238DF8073000F02BF84FF477
:107CD400FA60FFF7B1FD00F0A3F900F01DF84FF4CE
:107CE400FA70FFF7A9FD9DF8063001338DF80630D0
:107CF4009DF80630042BA4D900BF03B05DF804FB43
:107D040008B50220FFF713FE00BF08BD08B5022026
:107D1400FFF721FE00BF08BD08B51B20FFF71BFEBF
:107D240000BF08BD08B51B20FFF701FE00BF08BD5A
:107D340000B583B001901A20FFF7F9FD1620FFF774
:107D44000AFE019800F0F0F800BF03B05DF804FBF0
:107D540008B51620FFF7EBFD1A20FFF7FCFD00BF66
:107D640008BD08B51620FFF7F6FD1A20FFF7F3FD4E
:107D740000BF08BD08B51620FFF7D9FD1A20FFF78C
:107D8400D6FD00BF08BD000000B583B003468DF8E2
:107D940007309DF80730052B58D801A252F823F07C
:107DA400BD7D0200D77D0200F17D0200077E020046
:107DB400217E02003B7E02001720FFF791FD19206F
:107DC400FFF78EFD1720FFF7C6FD1920FFF7C3FD4F
:107DD40049E01720FFF784FD1920FFF781FD1720E4
:107DE400FFF7A5FD1920FFF7B6FD3CE000211720A1
:107DF400FFF787FD1920FFF773FD1920FFF7ABFD8F
:107E040031E01720FFF76CFD1920FFF769FD1720FB
:107E1400FFF7A1FD1920FFF78AFD24E01720FFF7E3
:107E24005FFD1920FFF75CFD1720FFF780FD192087
:107E3400FFF77DFD17E000211720FFF762FD1920F1
:107E4400FFF74EFD1920FFF772FD0CE01720FFF736
:107E540047FD1920FFF744FD1720FFF77CFD19208B
:107E6400FFF779FD00BF00BF03B05DF804FB00BF5E
:107E740008B500F037F800F002F800BF08BD08B5F7
:107E84000E20FFF72DFD0E20FFF751FD00210D20E0
:107E9400FFF737FD00F039FF00F0CBFF00BF08BD4E
:107EA40008B50C4B1B78012B12D10B4B1B6801330B
:107EB400094A1360084B1A68084B1B689A4207D199
:107EC400074B01225A6000F0ABF8024B00221A70F3
:107ED40000BF08BD386800203C68002040680020CE
:107EE4000090004000B587B001AB00221A605A60D0
:107EF4009A60DA600F230193102302934FF0CC733E
:107F0400039302238DF8103001A9002300220548B1
:107F1400FEF7CCFC05900348FEF754FD00BF07B004
:107F24005DF804FB440F030082B001904FF4FA3271
:107F3400019BB2FBF3F30E4A13600D4B1B685B0805
:107F44000C4A53600B4A13600B4A094B1B68C2F876
:107F54000835094B074AC3F82025074B0122C3F80B
:107F64002425054B01229A6000BF02B0704700BF70
:107F7400486800204C68002000C0014010B584B05F
:107F84008DED010ADFED1E6A9DED017AC6EE877A5A
:107F9400CDED037ADDED037AFCEEE77ACDED007AE0
:107FA400BDF800309AB2174B1A80039808F0C4FB4E
:107FB4004FF000024FF0804308F0DAFB03460C4612
:107FC4001846214608F0A2FB03469AB20E4B11460E
:107FD40059800D4B1A800D4B0A4A128892B2C3F88D
:107FE40008250A4B084AC3F82025084B0122C3F888
:107FF4002425064B01229A6000BF04B010BD00BFC7
:108004000024F447546800205868002000100240FF
:10801400024B01225A6000BF704700BF00100240AB
:10802400024B01225A6000BF704700BF00C00140EC
:10803400124B134AC3F82425104B0C22C3F8142501
:108044000E4B0B22C3F80C250C4B0E4AC3F84425E7
:108054000A4B0D4AC3F83425084B1422C3F84825AB
:10806400064B1422C3F83825044B0022C3F86C25B0
:10807400024B0822C3F8002500BF704700200040CF
:1080840000502700B8670020F867002008B51620C4
:10809400FFF726FC1A20FFF723FC1B20FFF720FC28
:1080A400FFF73AFE1620FFF742FC1A20FFF753FCB5
:1080B4000120FFF769FE1E20FFF74DFC1E20FFF78D
:1080C4000FFC2C4B1E22C3F860252A4B0122C3F857
:1080D4000025284B0022C3F80425264B0722C3F8A9
:1080E4000C25244B0022C3F81425224B0022C3F88C
:1080F4001025204B0022C3F828251E4B0022C3F86C
:108104002C2500211C48FFF758FC03211A48FFF7CF
:1081140069FC07211848FFF77AFC01211648FFF78C
:1081240042FC0820FFF717FC0820FFF7D9FB134B8C
:108134000822C3F86025114B0122C3F800250F4B18
:108144000022C3F804250D4B0722C3F80C250B4B62
:108154000022C3F81425094B0022C3F81025074B4D
:108164000022C3F82825054B0022C3F82C2500BFA4
:1081740008BD00BF00C00140009000400010024054
:1081840000B58DB08023ADF82A3000238DF8293056
:1081940000230B9311E00B9B3233274A32F913303F
:1081A40007EE903AF8EEE77A244A0B9B9B001344BF
:1081B400C3ED007A0B9B01330B930B9B7F2BEAD906
:1081C400BDF82A2001AB1146184607F06BFA0346A6
:1081D4008DF828309DF8293001A8194A174907F06D
:1081E400E5FA00230B9310E0154A0B9B9B00134404
:1081F400D3ED007AFDEEE77A17EE901A114A0B9B45
:1082040042F823100B9B01330B930B9B3F2BEBD9B1
:10821400F1EE103A0793079B23F09F030893089B02
:10822400E1EE103AF1EE103A09932620FFF76CFACA
:1082340000BF0DB05DF804FB7428002070230020FB
:10824400702500207027002000B587B09DF800300D
:10825400012262F303038DF800309DF800300122FF
:1082640062F307138DF800301E4808F01FFC034624
:108274009AB26B461B491846FFF76AFA0590059BAC
:108284000493049B002B05D0174A4FF46F71049894
:10829400FCF75FF901AB08220021184608F0D2FB75
:1082A4005023ADF80430A023ADF806300023ADF818
:1082B40008304FF4C873ADF80A3001AB1846FFF725
:1082C40043FA0590059B0393039B002B05D0064AB4
:1082D40040F2C6310398FCF73CF900BF07B05DF8E3
:1082E40004FB00BFD00E0300DC0E030000B583B016
:1082F4000021094803F0E1FB0190019B0093009BDE
:10830400002B05D0054A40F2CF310098FCF721F943
:1083140000BF03B05DF804FB40230020DC0E030023
:1083240000B5A3B041F22353ADF80430194B1B78C8
:108334008DF8063011AB3C220021184608F082FB70
:1083440002238DF8443001238DF8463006238DF83E
:10835400473002AB3C220021184608F073FB01238E
:10836400ADF8183001AB079302AA11AB11461846B9
:1083740001F0ACFB2190219B2093209B002B05D086
:10838400054A40F2ED312098FCF7E3F800BF23B032
:108394005DF804FB68230020DC0E030000B58FB0F9
:1083A40007AB1C220021184608F04CFB9DF81C303A
:1083B40043F002038DF81C309DF81C3043F0080391
:1083C4008DF81C300023089300230A9300230B9399
:1083D40000230C9300230D93314B1B788DF806304A
:1083E40041F22553ADF804306B46032200211846B0
:1083F40008F028FB9DF80030012262F303038DF896
:1084040000309DF80030012262F307138DF800302C
:108414009DF80130012262F303038DF801309DF8C9
:108424000130012262F307138DF801309DF8023008
:10843400012262F342038DF802309DF802306FF39B
:10844400C3038DF802309DF802306FF304138DF8E6
:1084540002309DF802306FF300038DF8023002AB56
:1084640014220021184608F0EDFA01AB02936B4682
:1084740003930123ADF810300023ADF8123001232B
:10848400ADF8143000230693064B188802AA07A9F6
:10849400054BFFF76DF9034618460FB05DF804FB72
:1084A40068230020542300206023002000B591B0ED
:1084B40007AB03220021184608F0C4FA9DF81C30CB
:1084C400012262F303038DF81C309DF81C30012255
:1084D40062F307138DF81C309DF81D30012262F3FE
:1084E40003038DF81D309DF81D30012262F307133C
:1084F4008DF81D309DF81E30012262F342038DF881
:108504001E3008AB1C220021184608F09BFA9DF887
:10851400203043F002038DF820309DF8203043F0E2
:1085240010038DF820300023099300230B930023BC
:108534000C9307AB0D9300230E93344B1B788DF8EB
:10854400063041F22453ADF804306B460322002177
:10855400184608F077FA9DF80030012262F303030D
:108564008DF800309DF80030012262F307138DF876
:1085740000309DF80130012262F303038DF80130CD
:108584009DF80130012262F307138DF801309DF844
:108594000230012262F342038DF802309DF802306A
:1085A4006FF3C3038DF802309DF802306FF30413A8
:1085B4008DF802309DF802306FF300038DF802301D
:1085C40002AB14220021184608F03CFA01AB0293D6
:1085D4006B4603930123ADF810300023ADF812303D
:1085E4000123ADF8143000230693094B188802AA1E
:1085F40008A9084BFFF7BCF80F900F9B002B01D084
:108604000F9BFFE7184611B05DF804FB68230020B8
:10861400542300205823002010B588B0204B01AC0F
:108624000FCB84E80F0001AB1E491846FFF7ACF8E6
:108634000790079B002B29D141F22353ADF8143046
:10864400184B1B788DF8163005AB174A19460120D4
:10865400FFF78AF80790079B002B19D1FFF726FF35
:108664000790079B002B15D1FFF798FE0790079BF7
:10867400002B11D1079B0693069B002B0DD00B4AB0
:1086840040F26A410698FBF764FF06E000BF04E08D
:1086940000BF02E000BF00E000BF08B010BD00BF93
:1086A400340F03006823002054230020DC0E030051
:1086B40000B585B00190019B1B78002B11D10B4BA9
:1086C4001B883B211846FFF73BF80390039B02935A
:1086D400029B002B05D0064A40F28D410298FBF71D
:1086E40038FF00BF05B05DF804FB00BFF420002094
:1086F400DC0E030000B583B00190054A4FF493618A
:108704000198FBF726FF00BF03B05DF804FB00BF30
:10871400DC0E030000B58BB001AB1C22002118460F
:1087240008F090F9002301934FF4202302934FF4AF
:108734002033039303238DF810300023ADF8123057
:1087440000238DF814300C4B06930C4B079301ABAC
:10875400184601F05FFB0990099B0893089B002BC6
:1087640005D0074A40F2AF410898FBF7F2FE00BF7C
:108774000BB05DF804FB00BFB5860200F986020069
:10878400DC0E030000B587B06B46102200211846AA
:1087940008F058F900238DF80030002301930023DA
:1087A4008DF808304023ADF80A300023ADF80C30C2
:1087B4006B4601211846FEF7BFFF0590059B049305
:1087C400049B002B05D0054A40F2C4410498FBF7F2
:1087D400C0FE00BF07B05DF804FB00BFDC0E030061
:1087E40010B594B001900091019B1B88013B552B5F
:1087F40000F27B8101A252F823F000BF538A0200E9
:10880400EF8A0200EF8A0200EF8A0200EF8A020078
:10881400EF8A0200EF8A0200EF8A0200EF8A020068
:10882400EF8A0200EF8A0200EF8A0200EF8A020058
:10883400EF8A0200EF8A0200598902006989020066
:10884400EF8A02007D890200EF8A0200EF8A0200AB
:10885400EF8A0200EF8A0200EF8A0200EF8A020028
:10886400EF8A0200EF8A0200EF8A0200EF8A020018
:10887400EF8A0200EF8A0200EF8A0200A789020051
:10888400EF8A0200EF8A0200EF8A0200EF8A0200F8
:10889400EF8A0200EF8A0200EF8A0200EF8A0200E8
:1088A400EF8A0200EF8A0200EF8A0200EF8A0200D8
:1088B400EF8A0200EF8A0200EF8A0200EF8A0200C8
:1088C400EF8A0200EF8A0200EF8A0200EF8A0200B8
:1088D400EF8A0200EF8A0200EF8A0200EF8A0200A8
:1088E400EF8A0200078A0200EF8A0200EF8A020080
:1088F400EF8A0200EF8A0200EF8A0200EF8A020088
:10890400EF8A0200EF8A0200EF8A0200EF8A020077
:10891400EF8A0200EF8A0200EF8A0200EF8A020067
:10892400EF8A0200EF8A0200EF8A0200EF8A020057
:10893400EF8A0200EF8A0200EF8A0200798A0200BD
:10894400DD890200EF8A0200EF8A0200EF8A02004A
:108954002D8A0200019B9A886D4B1A806D4B01226F
:108964001A70D1E06A4B4FF6FF721A80694B0022ED
:108974001A70FFF707FFC7E0654B18880023002231
:108984008521FEF7E9FE1390139B1293129B002B93
:1089940000F0AD80604A40F2E5411298FBF7D9FD42
:1089A400A5E000238DF82C3000238DF82D30019B99
:1089B4009B880BAA11461846FEF7D2FE1390139B10
:1089C4001193119B002B00F09480534A40F2F14123
:1089D4001198FBF7BEFD8CE04D4B18880023002254
:1089E4000021FEF7CDFE1390139B1093109B002BD8
:1089F40000F08180484A4FF49F611098FBF7A9FD6D
:108A040079E0019B9B8813211846FEF799FE139089
:108A1400139B0F930F9B002B6FD03F4A40F2FF41F3
:108A24000F98FBF796FD68E0019B9B88132118467D
:108A3400FEF786FE1390139B0E930E9B002B5ED0C5
:108A4400354A40F206510E98FBF783FD57E0019B2F
:108A54009B8800211846FEF79BFE1390139B0D93F1
:108A64000D9B002B4DD02C4A40F20B510D98FBF777
:108A740070FD46E0019B07AC0633186859689A6894
:108A8400DB680FC49DF81C30002B3CD09DF82430CB
:108A9400042B07D09DF82430062B03D09DF82430F6
:108AA400052B30D19DF81C30022B03D102238DF805
:108AB4000C3002E001238DF80C304FF4C173ADF893
:108AC4001030019B9B8803AA11461846FEF754FEFA
