:020000022000DC
:10300000000001203D32020095320200973202009A
:10301000993202009B3202009D3202000000000043
:103020000000000000000000000000009F320200CD
:10303000A132020000000000A3320200A53202000B
:103040005D740200AB320200517C0200ED89020087
:10305000B1320200B3320200B5320200B7320200D0
:10306000B9320200BB320200BD320200BF320200A0
:10307000C1320200C3320200C5320200C732020070
:10308000C9320200D9470200CD320200CF3202001D
:1030900019480200D33202004D070300D732020064
:1030A000D9320200DB320200DD320200DF320200E0
:1030B000E13202006D8A0200A7320200A73202004C
:1030C000E5320200E7320200E9320200EB32020090
:0C30D000ED320200EF320200F13202008B
:1030DC00364937480A1A02D0072291438D463549A2
:1030EC0035480A1A06D00722914381F30988022237
:1030FC0082F3148831483249324A00F045F832489C
:10310C003249334A00F040F832483349334A00F030
:10311C003BF833483349344A00F036F833483449E5
:10312C00344A00F031F834483449354A00F02CF870
:10313C0034483549354A00F027F8354835490022DE
:10314C0000F02DF834483549002200F028F83448B6
:10315C003449091A082903DB00220260043001609B
:10316C00314A90471F482049884205D002680430F4
:10317C0003B4904703BCF7E700208646EC460020DA
:10318C0000212A4A9047FEE7884207D0521A05D000
:10319C00037801300B700131013AF9D17047884244
:1031AC0002D002700130FAE77047000000000120E5
:1031BC0000F80020000001200000012084270300FB
:1031CC007821002090210020F4320200F432020019
:1031DC00A01403008427030078210020782100200C
:1031EC00F8150300F8150300F8150300F815030093
:1031FC00F8150300F8150300F8150300F815030083
:10320C00842703009C27030090210020902100209C
:10321C0090210020042D0020042D0020042D0020DE
:10322C00042D0020042F002061320200AD8E02001C
:10323C000F484FF00701884385460E4880470E48DB
:10324C00016841F470010160BFF34F8FBFF36F8FC2
:10325C00FFF73EBF09480A490A4A884207D0521A6A
:10326C0005D0037801300B700131013AF9D1704768
:10327C0000000120F1FB020088ED00E06015030066
:10328C00E020002078210020FEE7FEE7FEE7FEE7C5
:10329C00FEE7FEE7FEE7FEE7FEE7FEE7FEE7FEE7FA
:1032AC00FEE7FEE7FEE7FEE7FEE7FEE7FEE7FEE7EA
:1032BC00FEE7FEE7FEE7FEE7FEE7FEE7FEE7FEE7DA
:1032CC00FEE7FEE7FEE7FEE7FEE7FEE7FEE7FEE7CA
:1032DC00FEE7FEE7FEE7FEE7FEE7FEE7FEE7FEE7BA
:0832EC00FEE7FEE7FEE700BF6C
:1032F40000B583B001900091019B1B681B68009985
:103304000198984700BF03B05DF804FB00B583B093
:103314000190019B1B685B680198984700BF03B04C
:103324005DF804FB82B00190019B01225A7200BF38
:1033340002B0704782B00190019B5B7A184602B0DC
:10334400704710B487B001900091019B009A53E834
:10335400004F44EA020043E8000191F0000FF6D167
:10336400059404900391049B184607B05DF8044B40
:10337400704710B487B001900091019B009A53E804
:10338400004F04EA020043E8000191F0000FF6D177
:10339400059404900391059B184607B05DF8044B0F
:1033A400704700B583B0019001210198FFF7C9FF70
:1033B4000346184603B05DF804FB00B583B00190E2
:1033C40000210198FFF7D5FF0346184603B05DF8C6
:1033D40004FB0000024A034BD31ADB08184670476B
:1033E40038150300E014030000B589B04148FFF725
:1033F400D8FF4148FFF7D5FF404B5B6807933F4B2D
:103404009B680493079A049B134002339B003B4A36
:103414001344043306931BE0079B01330793069B75
:103424005B88C3F389139BB21A46069B1B88C3F3BC
:1034340089139BB213441A46079B13440793079AB4
:10344400049B134002339B002C4A13440433069319
:10345400069B1B7803F00303DBB2002BDCD00023B4
:10346400059311E0059B9B006A461A44079B591C6F
:10347400079104990B40214902339B000B445B687C
:103484001360059B01330593059B012BEAD99DF835
:103494000030C3F30103DBB2012B0CD0022B14D197
:1034A400BDF80230C3F389139BB203339B08079A18
:1034B400134407930FE0BDF80030C3F38313DBB26A
:1034C4001A46079B1344079305E00D4940F24D103B
:1034D40002F007FF00BF0848FFF76FFF0390039B4C
:1034E400002B02D0054A079B536000BF09B05DF86A
:1034F40004FB00BF782600207426002060220020F0
:103504001C16030010B586B003900291019200933B
:10351400039B1B0CADF81630BDF81640FFF75AFF9D
:1035240003469C4204D325494FF4B27002F0D9FEFD
:10353400009B5A1C089B1340BDF8162020490233F7
:103544009B000B445A60009A089B134002339B0073
:103554001B4A134404330493039B03F01003002B0E
:1035640014BF01230023D9B2049A137861F38203B0
:103574001370039BDBB203F00703D9B2049A1378E8
:1035840061F3C5031370019BDBB203F00F03D9B2DF
:10359400049A138861F389131380029BC3F3150102
:1035A400049A136861F39F231360049A137801212A
:1035B40061F30103137000BF06B010BD1C160300B5
:1035C4006022002000B58BB001900091019B023372
:1035D40008930223079301238DF81B3000238DF8F1
:1035E4000F300DF10F03184601F044FA214B1A680D
:1035F400009B1A601F4B9A681E4B59681D4B1B6831
:10360400CB1A134401330993089A079B1344059377
:103614000BE0FFF7E9FE174B9A68164B5968154BF8
:103624001B68CB1A134401330993059A099B9A42E8
:10363400EFD8104B1A680F4B9B68134002339B0062
:103644000C4A134404330493049A137843F0030399
:103654001370084B1A68089B1344064A13609DF8BC
:103664000F30184601F01CFA9DF81B3018460BB0B9
:103674005DF804FB6022002000B58BB00590049136
:10368400039202931F4B9B68079306AB194602985B
:10369400FFF798FF0346002B24D0069B02330993BF
:1036A4000023089311E0099B5A1C0992079A1340BE
:1036B400089A920003990A441268124902339B0043
:1036C4000B445A60089B01330893089A029B9A4260
:1036D400E9D3069A079B00931346029A0499059826
:1036E400FFF710FF074B93F81C34002B05D000BFE5
:1036F40000F064F80346002BFAD100BF0BB05DF86C
:1037040004FB00BF6022002000B583B0019000914B
:103714000023002200990198FFF7AEFF00BF03B019
:103724005DF804FB00B587B0039002910192019B00
:10373400059305AA012302990398FFF79DFF00BF93
:1037440007B05DF804FB00B587B0039002910192C5
:103754000093019B0493009B059304AA02230299FE
:103764000398FFF789FF00BF07B05DF804FB00B5BD
:1037740089B00390029101920093019B0493009BF2
:1037840005930A9B06930B9B079304AA04230299AF
:103794000398FFF771FF00BF09B05DF804FB000058
:1037A400054B5A68044B1B689A420CBF0123002343
:1037B400DBB21846704700BF6022002000B599B004
:1037C400FFF7EEFF0346002B01D00023B5E19D4B2C
:1037D4000022C3F81824BFF34F8F9A4B5B681793EA
:1037E400984B9B681093179A109B134002339B00CD
:1037F400944A13440433169300231593002314931B
:1038040000230F931BE0179B01331793169B5B88D0
:10381400C3F389139BB21A46169B1B88C3F38913FF
:103824009BB213441A46179B13441793179A109B81
:10383400134002339B00834A134404331693169BAC
:103844001B7803F00303DBB2002BDCD000231393BB
:1038540011E0139B9B0002AA1A44179B591C179151
:1038640010990B40774902339B000B445B6813604B
:10387400139B01331393139B012BEAD99DF8083052
:1038840003F00303DBB2022B40F09C80BDF80A3046
:10389400C3F389139BB20D93BDF80A30C3F38913A4
:1038A4009BB2502BA8BF50230C930C9B9BB2C3F329
:1038B40009039AB2BDF80A3062F38F13ADF80A30E7
:1038C4000C9B08330B939DF80830C3F3C203DBB29F
:1038D4000F930B995C4803F05BF91590159B002B33
:1038E40000F0E380159803F0E3F902A9149B082281
:1038F400159803F087FA149B08331493179BDA4343
:10390400109B134001339B000A930C9A0A9B9A4222
:1039140042D90A9B002B08D0179A109B13400233FC
:103924009B00484A1344043300E0484B09930A9B24
:10393400002B02D00A9BDBB201E00C9BDBB28DF8BA
:1039440023300A9B002B01D0404B00E00023079357
:103954000A9B002B06D00C9BDAB20A9BDBB2D31A6B
:10396400DBB200E000238DF81B309DF82320149B6C
:103974000999159803F046FA9DF82330149A1344D4
:103984001493079B002B16D09DF81B20149B0799BA
:10399400159803F037FA0EE0179A109B1340023380
:1039A4009B00284A134404330593149B0C9A0599ED
:1039B400159803F027FA0D9B03339B08179A1344B9
:1039C400179372E09DF8083003F00303DBB2012B78
:1039D4005DD1BDF80830C3F38313DBB2062B28BFD7
:1039E4000623DBB203F00F03DAB2BDF8083062F34A
:1039F4008913ADF80830BDF80830C3F38313DBB284
:103A040002330E939DF80830C3F3C203DBB20F9365
:103A14000E9B9B0019460C4803F0BAF81590159BB1
:103A2400002B42D0159803F043F902A9149B0822F5
:103A3400159803F0E7F9149B0833149300231393A8
:103A44001BE000BF60220020F81503006C22002058
:103A5400179B5A1C1792109A134002339B00394A41
:103A64001344191D149B0422159803F0CBF9149BDD
:103A740004331493139B01331393BDF80830C3F339
:103A84008313DBB21A46139B9A42E1D80DE09DF8EA
:103A9400083003F00303DBB2032B06D1294BD3F820
:103AA4001834002B01D1002347E0159B002B3ED096
:103AB400244BD3F810341293224BD3F81834002B30
:103AC4001AD0159803F003F931E000238DF847303C
:103AD4001298FFF72FFC0346002B02D001238DF828
:103AE40047309DF84730002B03D015991298FFF703
:103AF400FFFB129B5B681293129B002BE5D1159878
:103B040003F0E5F800238DF807300DF1070318469C
:103B140000F0B0FF0B4BD3F81834002B02D1094A44
:103B2400179B53609DF80730184600F0B9FFFFF764
:103B340037FE034683F00103DBB2184619B05DF883
:103B440004FB00BF6022002000B583B00C4BD3F807
:103B5400103401930A4B012283F81C2408E00198D5
:103B6400FFF7E0FB0198FFF7D1FB019B5B68019332
:103B7400019B002BF3D100BF03B05DF804FB00BF31
:103B84006022002000B589B0039002910192029B4B
:103B94009BB2ADF81430019B0693039B079305ABCE
:103BA4001A46002144F2010000F050F800BF09B0A9
:103BB4005DF804FB86B003900291019201238DF815
:103BC40017309DF81730204A039B13601E4A029B4E
:103BD40053601D4A019B9360039B44F2010293428C
:103BE40012D044F20202934222D1019B164AD360BE
:103BF400154BDB681B881A46134B9A61124BDB6822
:103C04005B68114AD36113E0019B0F4A13610E4BA9
:103C14001B699B680C4A53610B4B1B691B881A4632
:103C2400094B9A61084B1B695B68074AD36100BF63
:103C340072B600BF9DF81730DBB2002BFAD162B622
:103C440000BF06B0704700BF8026002030B589B0A1
:103C5400059004910392FFF777FF00BFFFF7AEFDD5
:103C64000346002BFAD1059B41F20102934219D07D
:103C740041F20102934202D8012B09D04AE044F2F6
:103C84000102934228D044F20202934214D041E04C
:103C94002D4B1B881B0443F001032C491846FFF7E6
:103CA40033FD42E0284B1B881B0443F001032849E1
:103CB4001846FFF729FD38E0039B0793224B1B8826
:103CC4001B0443F00100079B5B681A46079B1B8893
:103CD4002049FFF738FD28E0039B06931A4B1B8805
:103CE4001B0443F00104069B9D68069B9B681846D1
:103CF40003F0F6F803461946069B5B681A46069BD2
:103D04001B88019300920B462A4613492046FFF76D
:103D14002EFD0AE00C4B1B881B0443F00103049A9C
:103D24000E491846FFF7FEFC00BF0D4B1B6803F05D
:103D34000103002B00D0FFDE039A04990598FFF7D6
:103D440039FF00BF09B030BDE02000208016030019
:103D5400A0160300C4160300E0160300F8160300BF
:103D6400F0ED00E082B003468DF8073007499DF975
:103D740007305B099DF8072002F01F02012000FABA
:103D840002F241F8232000BF02B0704700E100E0D6
:103D940082B003468DF8073008499DF907305B0966
:103DA4009DF8072002F01F02012000FA02F22033DE
:103DB40041F8232000BF02B0704700BF00E100E0DB
:103DC40082B003468DF8073008499DF907305B0936
:103DD4009DF8072002F01F02012000FA02F240338E
:103DE40041F8232000BF02B0704700BF00E100E0AB
:103DF40082B003468DF8073008499DF907305B0906
:103E04009DF8072002F01F02012000FA02F260333D
:103E140041F8232000BF02B0704700BF00E100E07A
:103E240082B0034600918DF807309DF90730002BCE
:103E34000CDA0D499DF8073003F00F03043B009A98
:103E4400D2B25201D2B20B441A7609E007499DF965
:103E54000730009AD2B25201D2B20B4483F8002345
:103E640000BF02B0704700BF00ED00E000E100E0D9
:103E740084B00190244B0393019B002B40D0234B2F
:103E84001A680399019B00BF00BF00BF00BF00BFB9
:103E940000BF00BF00BF8A422FD000BF00BF00BFD9
:103EA40000BF00BF00BF00BF00BF00BF00BF00BF16
:103EB40000BF00BF00BF00BF00BF00BF00BF00BF06
:103EC40000BF00BF00BF00BF00BF00BF00BF00BFF6
:103ED40000BF00BF00BF00BF00BF00BF00BF00BFE6
:103EE40000BF00BF00BF00BF00BF00BF00BF00BFD6
:103EF40000BF00BF00BF00BF00BF013BC3D101939F
:103F040000BF04B0704700BF0024F4008C210020DF
:103F140000B583B00190064A019BC2F80835072119
:103F24001120FFF77DFF00BF03B05DF804FB00BF65
:103F34000010014008B50D4B4FF48032C3F8442300
:103F44000A4B4FF48032C3F804231120FFF750FFCB
:103F54001120FFF707FF054B01221A602F20FFF7FE
:103F640087FF034B01221A7000BF08BD00100140F7
:103F7400BE27002008B51120FFF70AFF0E4B4FF4AF
:103F84008032C3F848230C4B4FF48032C3F8082323
:103F9400094B01225A602F20FFF76AFF064B0122CA
:103FA4009A60064B00221A602F20FFF761FF044B32
:103FB40000221A7000BF08BD00100140B027002085
:103FC400BE270020024BD3F804351846704700BFC3
:103FD4000010014082B001900091019A009BD31A15
:103FE40023F07F43184602B07047000082B001906E
:103FF400034A019BC2F8403500BF02B0704700BFBE
:104004000010014086B00190284B1B68002B03D19F
:10401400264A019B136045E0019B1A68234B1B68E9
:104024001B689A4210D8214B1B68204A12681168F9
:10403400019A12688A1A1A601C4B1A68019BDA6189
:104044001A4A019B13602DE0019B1B680393174BD5
:104054001B680593154B1B68049309E0049B1B68BC
:10406400039AD31A0393049B0593049BDB6904937B
:10407400049B002B04D0049B1A68039B9A42EDD343
:10408400049B002B05D0049B1A68039BD21A049B43
:104094001A60019B039A1A60019B049ADA61059BDA
:1040A400019ADA6100BF06B0704700BFAC27002058
:1040B40000B587B001902A4B1B680393284B1B68FB
:1040C4000593059B049308E0049A019B9A4208D047
:1040D400049B0593049BDB690493049B002BF3D19D
:1040E40000E000BF049B002B01D1002333E0059ABC
:1040F400049B9A4214D11A4B1B68DB69184A13605B
:10410400174B1B68002B0BD1164B01229A60164BE0
:1041140000221A60154B01221A702F20FFF7A8FE07
:10412400049B1B680293049BDA69059BDA61059B77
:10413400DB690493049B002B05D0049B1A68029B43
:104144001A44049B1A60064B1B68039A9A4214BFD4
:1041540001230023DBB2184607B05DF804FB00BF5F
:10416400AC27002000100140B0270020BF2700200A
:1041740008B51120FFF724FE00BF08BD08B51420C0
:10418400FFF71EFE00BF08BD00B583B00190019B80
:104194005B69019A92691046984700BF03B05DF8C5
:1041A40004FB000000B585B02B4B1B68002B4ED0E0
:1041B40000230193FFF706FF0246284B1B681946AC
:1041C4001046FFF707FF0290234B1B6803931DE083
:1041D400039B1A68029B9A421CD8039B1B68029A91
:1041E400D31A0293039B1B68019A13440193039B04
:1041F4000093039BDB690393009B1B7C002B05D07E
:10420400009B00221A740098FFF7BEFF039B002B4B
:10421400DED100E000BF124B1A78124B1B789A4291
:104224000CD1104B1B780133DAB20E4B1A700D4BC4
:104234001B78022B02D10B4B00221A70094B1B78FE
:104244001946094A019B42F82130FFF797FF00BF46
:1042540005B05DF804FB00BFAC270020B0270020A8
:10426400BC270020BD270020B427002082B0019085
:10427400184B1A78184B1B789A4223D0154B1B788D
:104284000133DAB2134B1A70124B1B78022B02D192
:10429400104B00221A700F4B1B781A460F4B53F821
:1042A4002220019B1A60019B1A680D4B1B68134462
:1042B4000B4A13600A4B1B6823F07F43084A1360C0
:1042C400012303E0019B00221A600023184602B078
:1042D400704700BFBC270020BD270020B427002062
:1042E400B027002088B00390029101920023079325
:1042F40038E0204B1B680693069B1A68039B9A427E
:1043040006D9069B1A68039BD21A069B1A602DE0F5
:10431400069B1B68039AD31A0393069B1B68079A90
:1043240013440793069B00221A60124B1B680593E3
:10433400069BDB690F4A1360069BDB68002B11D0D8
:10434400029A079B134423F07F42069B5A60069B04
:10435400DA68069B9A60019B1A68069BDA61019BE6
:10436400059A1A60034B1B68002BC2D100BF08B02A
:10437400704700BFAC27002000B589B0019000232E
:104384008DF81F30664B1B680593AAE0019B002B38
:1043940005D0019B0693069BDB69019361E0614BA9
:1043A4001B781A4613465B001344DB005D4A134432
:1043B400043304935B4B1B780133DAB2594B1A7004
:1043C400584B1A78574B9B789A4202D1554B00228E
:1043D4001A70049B5B680693049B1B78022B04D021
:1043E400032B1BD0012B1FD01DE0049B5B681846D8
:1043F400FFF75EFE0346002B02D001238DF81F3029
:10440400069B00221A746CE0454B1B680393039BC4
:1044140000221A74039BDB69414A1360404B1B68FA
:10442400002BF1D15DE05CE000BF069B1B7C002B00
:1044340000D056E0049B9A68069B5A60049BDA6895
:10444400069B9A60049B1A69069BDA60049B5A696E
:10445400069B9A61344B1B78002B02D0069B0022EA
:104464005A60069B5A68314B1B68D31A23F07F436A
:104474002F4A93420ED8069B5A682C4B1B68194648
:104484001046FFF7A7FD0246069B9B681A44069B4D
:104494001A6017E0254B1A68069B5B68194610469C
:1044A400FFF798FD0290069B9A68029B9A4206D9F0
:1044B400069B9A68029BD21A069B1A6002E0069B2E
:1044C40000221A60069B00225A60069B00229A6012
:1044D400069B01221A74069B0022DA610698FFF7F4
:1044E40091FD019B002B7FF451AF0E4B1A780D4BBD
:1044F4005B789A427FF44AAF9DF81F30002B04D1B9
:10450400074B1A68059B9A4201D0012300E000235F
:1045140003F00103DBB2184609B05DF804FB00BFE9
:10452400AC270020A0260020BF270020B0270020B1
:10453400FEFF7F0010B588B00190274B1B68002B4D
:1045440044D0254B1B681B680793FFF73BFD06907F
:10455400224B1B68059305990698FFF73BFD03461C
:10456400033304931E4B1B7883F00103DBB2002B4F
:1045740001D0FFF7DFFC049A079B934238BF134630
:10458400059A13440593059B23F07F4305930598EF
:10459400FFF72CFDFFF716FD039006990398FFF72C
:1045A40019FD0346DC1C06990598FFF713FD034625
:1045B4009C420DD9FFF706FD03461846FFF716FD8A
:1045C4002F20FFF755FCFFF7D3FD01E0FFF7D2FCE6
:1045D40000BF08B010BD00BFAC270020B0270020EA
:1045E400BE27002000B587B00023019300238DF877
:1045F4001730194B1B680493184B1B6803936B46C5
:104604001846FFF733FE03468DF80B309DF80B3048
:10461400002B08D0009B01AA04991846FFF762FEFC
:1046240001238DF81730019B1846FFF7A5FE0346BA
:10463400002B02D001238DF817309DF81730002B82
:1046440002D00398FFF776FF054B00221A7000BFD3
:1046540007B05DF804FB00BFB0270020AC270020A2
:10466400BF27002082B003468DF80730034A9DF827
:104674000730537000BF02B0704700BFA02600206F
:1046840084B00190144B5B7801338DF80F30124BDA
:104694009B789DF80F209A4202D100238DF80F30A9
:1046A4000D4B1B789DF80F209A4201D100230FE097
:1046B400019B9DF80F201A70074B5B781A4613462E
:1046C4005B001344DB00044A134404330293029B4B
:1046D400184604B0704700BFA026002000B589B07A
:1046E40003900291019200930023079300238DF815
:1046F40016300DF11603184600F0BCF90DF117033E
:104704001846FFF7BDFF0690069B002B02D1042339
:10471400079318E0069B01221A70069B039A5A60BD
:10472400FFF750FC0246069B9A60069B029ADA60E9
:10473400069B019A1A61069B009A5A619DF81730EC
:104744001846FFF78FFF9DF81630184600F0A8F9B9
:10475400079B002B01D1FFF711FD079B184609B0F9
:104764005DF804FB00B587B001900B468DF803306B
:104774000023059300238DF80E300DF10E03184627
:1047840000F078F90DF10F031846FFF779FF049054
:10479400049B002B02D1042305930BE0049B9DF89A
:1047A40003201A70049B019A5A609DF80F30184632
:1047B400FFF758FF9DF80E30184600F071F9059B7D
:1047C400002B01D1FFF7DAFC059B184607B05DF812
:1047D40004FB000008B50E4B0022C3F840210C4B2B
:1047E4000022C3F844210A4B0022C3F84821084B95
:1047F4000022C3F84C21064B0022C3F80021044BCD
:104804000022C3F80421FFF7CDFC00BF08BD00BFA0
:104814000010014008B5FFF7E5FE00BF08BD000029
:1048240008B5FFF7A7FB134B00221A70114B0022A7
:104834005A70104B0B229A700F4B00221A600F4BC8
:1048440000221A700E4B00221A701420FFF7D0FABF
:1048540007211420FFF7E4FA1420FFF783FA00205D
:10486400FFF756FBFFF7AEFB0246064B1A60002328
:10487400184608BDA0260020AC270020BC27002035
:10488400BD270020B027002086B003900B4601927C
:104894008DF80B30134B9B78002B01D108231EE0BD
:1048A400019B002B01D1072319E0039B002B01D1AD
:1048B400072314E0039B1B681B7C002B01D00823F7
:1048C4000DE0039B1B680593059B00221A74059B4E
:1048D4009DF80B205A74059B019A5A6100231846CF
:1048E40006B07047A026002000B587B0039002915F
:1048F4000192039B0593144B9B78002B01D1082351
:104904001EE0039B002B01D1082319E0029B042B1A
:1049140001D8072314E0059B5B69002B01D1082310
:104924000EE0059B5B7C012B01D1029B00E0002380
:104934000493019B049A02990598FFF7CFFE03465E
:10494400184607B05DF804FBA026002000B585B02A
:104954000190019B03930D4B9B78002B01D10823FD
:1049640010E0019B002B03D0039B5B69002B01D15A
:10497400082307E0039B00221A7402210398FFF71F
:10498400F1FE0346184605B05DF804FBA02600209E
:1049940082B0EFF310830093009B019372B6019BE6
:1049A400184602B0704762B600BF704700B585B0C4
:1049B4000190FFF7EDFF0390164B9B68002B1BD172
:1049C400144B01229A60144BD3F88020134B1340EC
:1049D400104A1360104B114AC3F880200E4BD3F8D1
:1049E40084300C4A53600C4B4FF0FF32C3F88420E0
:1049F400019B00221A7002E0019B01221A70039BA2
:104A0400002B01D1FFF7CFFF0023184605B05DF856
:104A140004FB00BFC027002000E100E0FC06FFBD4E
:104A240000B585B003468DF80730104B9B68002B0A
:104A340016D09DF80730002B12D1FFF7A9FF039081
:104A44000B4A0A4B1B681360094A084B5B685360A6
:104A5400064B00229A60039B002B01D1FFF7A3FFB2
:104A64000023184605B05DF804FB00BFC0270020F2
:104A740000E100E000B583B0019000F02BF803469C
:104A8400012B03D00549432001F02BFC0198FFF7CB
:104A94008DFF00BF03B05DF804FB00BF10170300D7
:104AA40000B583B003468DF8073000F013F80346D1
:104AB400012B03D00649512001F013FC9DF8073067
:104AC4001846FFF7ADFF00BF03B05DF804FB00BF5D
:104AD4001017030084B0EFF305830193019BC3F324
:104AE40008030393039B002B0DD1EFF3148300936E
:104AF400009B0293029B03F00103002B0CBF0123D4
:104B04000023DBB200E00123184604B0704782B0F2
:104B14000190019B03F00303002B0CBF012300232E
:104B2400DBB2184602B0704710B487B00190009110
:104B3400019B009A53E8004F04EB020043E8000194
:104B440091F0000FF6D1059404900391059B18464B
:104B540007B05DF8044B704710B487B00190009122
:104B6400019B009A53E8004F04EB020043E8000164
:104B740091F0000FF6D1059404900391049B18461C
:104B840007B05DF8044B704710B487B001900091F2
:104B9400019B009A53E8004FA4EB020043E8000194
:104BA40091F0000FF6D1059404900391049B1846EC
:104BB40007B05DF8044B704700B585B00190002341
:104BC40003930EE00A4A039B52F82330002B05D0CE
:104BD400074A039B52F8233001989847039B0133FB
:104BE4000393039B032BEDD900BF05B05DF804FBD1
:104BF400D827002082B001900091019B1B78013BD3
:104C0400052B61D801A252F823F000BF294C020001
:104C1400314C0200574C0200894C0200A94C02009E
:104C2400C54C0200009B00221A704EE0009B01223A
:104C34001A70019B1A89009B9A81019B9A88009B98
:104C4400DA81019BDA68009B9A60009B00221A7447
:104C54003BE0009B02221A70019B1A89009B9A81F7
:104C6400019B9A88009BDA81019BDA68009B9A6019
:104C7400019B9B7D062B0CBF01230023DAB2009B12
:104C84001A7422E0009B03221A70019BDA88009BAD
:104C94009A81019B1A89009BDA81019BDA68009B47
:104CA4009A6012E0009B04221A70019BDA88009B30
:104CB4009A81009B0022DA81009B00229A6004E022
:104CC400009B05221A7000E000BF00BF02B07047CD
:104CD40084B001900091019B0393039A009B9A4234
:104CE40006D2039B1B68B3F1FF3F01D0012300E010
:104CF400002303F00103DBB2184604B0704782B00E
:104D04000190019B5B8803339B00019A134418466E
:104D140002B0704700B583B0019000910198FFF78D
:104D2400EEFF0246009B9A4201D902230CE0019B4C
:104D34009B884FF6FF72934203D0019B1B88002B84
:104D440001D1012300E00023184603B05DF804FB01
:104D540000B583B00190019B002B13D00D4BDB6891
:104D64001A46019B9A420DD80A4B1B691A46019BAD
:104D74009A4207D30198FFF7CAFE0346002B01D0DD
:104D8400012300E0002303F00103DBB2184603B063
:104D94005DF804FB6421002082B003460A46ADF8A6
:104DA40006301346ADF80430BDF806201349134607
:104DB4009B0013449B000B4408331A88BDF804304D
:104DC4001344ADF80430BDF806200C4913469B008B
:104DD40013449B000B440A331A88BDF8043013446F
:104DE400ADF80430BDF8043040F2FF32934294BF72
:104DF40001230023DBB2184602B07047FC270020D1
:104E040084B0019000910A2303930023ADF80A3083
:104E140027E0BDF80A20174913469B0013449B0062
:104E24000B4404331A68009B9A4215D2BDF80A2039
:104E3400104913469B0013449B000B4404331B6826
:104E440003F58052009B9A4206D900230393019BE9
:104E5400BDF80A201A8008E0BDF80A300133ADF825
:104E64000A30BDF80A30012BD3D9039B184604B08D
:104E7400704700BFFC27002082B001900B46ADF8BC
:104E84000230019B1A89BDF8023013449BB20333EC
:104E94009AB2019B1A81019B5A89BDF80230D31A38
:104EA4009BB2033B9AB2019B5A8100BF02B0704788
:104EB40000B583B0074B1B681946002300930823F1
:104EC400054A064801F0A2FB0346184603B05DF804
:104ED40004FB00BF24280020B01703006421002035
:104EE40000B585B003900399002300930823044A76
:104EF400044801F08BFB0346184605B05DF804FB3B
:104F0400B81703006421002000B585B00346009162
:104F1400ADF8063000238DF80F30BDF806300333AA
:104F2400ADF80A30BDF80A3040F2FD32934201D99F
:104F340009234AE00023ADF80C303BE0BDF80C2017
:104F4400244913469B0013449B000B441B78002BFD
:104F54002BD1BDF80A20BDF80C3011461846FFF7D6
:104F64001BFF0346002B20D001238DF80F30009B3C
:104F7400BDF80C201A80BDF80C20BDF80C101548A3
:104F84000B469B000B449B0003440A331988BDF86D
:104F94000A300B4498B20F4913469B0013449B00FC
:104FA4000B440A3302461A8008E0BDF80C30013382
:104FB400ADF80C30BDF80C30012BBFD99DF80F3083
:104FC400002B01D0002300E00723184605B05DF84C
:104FD40004FB00BFFC27002082B003460A46ADF85C
:104FE40006301346ADF80430BDF80420BDF80410B3
:104FF4000C480B469B000B449B0003440A3319885E
:10500400BDF80630CB1A9BB2033B98B20549134650
:105014009B0013449B000B440A3302461A8000BFD2
:1050240002B07047FC27002008B501210248FFF7B1
:1050340093FD0346184608BDE827002000B585B057
:1050440003460091ADF80630BDF806202349134607
:105054009B0013449B000B4404331B6803F58053EB
:105064000293009B1B680393039B002B04D00398BB
:10507400FFF745FE039024E0BDF8062017491346C8
:105084009B0013449B000B4404331B6808330393B5
:1050940017E002990398FFF73DFE0346012B09D060
:1050A400022B0CD0002B00D00BE0009B039A1A605B
:1050B40001230EE00398FFF722FE039001E0002392
:1050C40007E002990398FFF703FE0346002BE0D1A3
:1050D4000023184605B05DF804FB00BFFC27002040
:1050E40000B585B001900091019B5B681846FFF7FD
:1050F4002FFE0346002B19D0019B1A89244B1B89D0
:105104009A4213D1019B1A68019B5B689B689A427F
:105114000CD1019B5B6819460098FFF771FE0346AA
:10512400002B0CBF01230023DBB22CE0009B0022E8
:105134001A8023E00023029310E0029B0393039B55
:105144009A68019B1B689A4208D1029A019B5A6093
:105154000F4B1A89019B1A81012314E0009B1B88C1
:1051640002AA11461846FFF769FF0346002BE4D153
:10517400009B1B8801339AB2009B1A80009B1B88FA
:10518400012BD7D90023184605B05DF804FB00BFF6
:105194002C28002000B587B003900291019200935F
:1051A400304B1B78DBB283F00103DBB2002B01D060
:1051B400022353E0019B002B02D0009B002B48D11B
:1051C40005234BE0009B9B881946274A0B469B000E
:1051D4000B449B0013441B78002B33D124E0009B29
:1051E4001B680593039B002B06D0059B9A88039BA1
:1051F4001B889A4200D017E0029B002B06D0059B27
:105204001A88029B1B889A4200D00DE0059B9A687D
:10521400019B1A60009B1A68019B5A60134B1A8900
:10522400019B1A81002319E0009B9B88009A114678
:105234001846FFF703FF0346002BD0D1009B002242
:105244001A6000E000BF009B9B8801339AB2009B68
:105254009A80009B9B88012BB4D90A23184607B077
:105264005DF804FBCC270020FC2700202C2800201C
:1052740000B585B00190084B0199184601F0BDF8BE
:1052840003901C22002103980BF016FD039B184683
:1052940005B05DF804FB00BFEC27002000B583B027
:1052A4000190044B0199184601F0BEF800BF03B009
:1052B4005DF804FBEC27002000B583B00190054B9A
:1052C4000199184601F0C4F80346184603B05DF886
:1052D40004FB00BFEC27002000B583B00190044B11
:1052E4000199184601F0CBF800BF03B05DF804FB48
:1052F400EC27002008B50A4B1B68002B04D1094990
:1053040040F2712000F0EDFF01210548FFF73CFC5D
:105314000346002B14BF01230023DBB2184608BD4B
:10532400D42700206817030000B587B003900291CA
:10533400039B02229A750299039B1A1D0023009372
:105344000423074801F062F90590059B002B01D165
:10535400002300E00E23184607B05DF804FB00BFED
:105364006421002000B587B003900291039B1B6960
:10537400002B01D0032200E00122039B9A75029BBB
:1053840008331946039B03F10C0200230093042302
:10539400064801F03BF90590059B002B01D1002341
:1053A40000E00E23184607B05DF804FB64210020DA
:1053B40000B587B003900291039B1B78032B01D1A6
:1053C400052200E00622039B9A75029B04331946CA
:1053D400039B03F10802002300930423064801F011
:1053E40015F90590059B002B01D1002300E00E2345
:1053F400184607B05DF804FB6421002000B587B0AF
:1054040003900B46ADF80A3003990023009304235C
:105414000C4A0D4801F0FAF80590059B002B01D0C9
:105424000E230BE0BDF80A20084913469B001344E1
:105434009B000B44103301221A700023184607B056
:105444005DF804FBC017030064210020FC27002042
:1054540000B589B0019002AB00221A605A609A60CC
:10546400019BDB6802930DF1160202AB114618464C
:10547400FFF736FE0346002B12D0039B0693069BD0
:105484009A88019BDA80069B1A88019B1A81039BE8
:10549400BDF8162011461846FFF7B0FF079001E04B
:1054A4000A230793079B184609B05DF804FB000024
:1054B40000B587B00190019B981D02AA0D4B0021F5
:1054C400FFF768FE0590059B002B08D1039A094B52
:1054D4009B8819461046FFF791FF059004E00822C7
:1054E400002104480BF0E8FB059B184607B05DF863
:1054F40004FB00BF3C28002000B587B00390029154
:10550400039B01229A75029B0C331846039B1A696C
:10551400039BDB889900002300930B460146074850
:1055240001F074F80590059B002B01D1002300E0E5
:105534000E23184607B05DF804FB00BF6421002069
:1055440082B0174B1B8901339AB2154B1A81144B45
:1055540000225A80124B00221A730023ADF8063041
:1055640017E0BDF80610BDF806200E4813469B0050
:1055740013449B0003441B78002B0CBF012300231E
:10558400DAB2074B0B449A72BDF806300133ADF81A
:105594000630BDF80630012BE3D900BF02B07047D6
:1055A4002C280020FC27002084B0019000238DF8D3
:1055B4000F300023ADF80C3031E0BDF80C301C4A3C
:1055C40013449B7A002B25D0BDF80C30184A1344A1
:1055D40000229A72BDF80C20164913469B0013440E
:1055E4009B000B440C331B68002B13D1BDF80C201B
:1055F400104913469B0013449B000B4410331B7843
:10560400002B07D0019BBDF80C201A8001238DF8D4
:105614000F3008E0BDF80C300133ADF80C30BDF8A4
:105624000C30012BC9D99DF80F30184604B07047CF
:105634002C280020FC27002008B5084B05221A70EE
:10564400074B02229A80064B1B681946002301224D
:10565400044801F02DF80346184608BD2C28002004
:10566400242800206421002000B583B0164B5B88F9
:10567400ADF80230BDF80220144913469B001344D0
:105684009B000B440C331B68002B14D10E4B0422DB
:105694001A70BDF802200D4913469B0013449B0069
:1056A4000B4404331B68194600230122084800F008
:1056B400FFFF019002E0FFF7BFFF0190019B184636
:1056C40003B05DF804FB00BF2C280020FC27002059
:1056D4006421002000B587B0114B5B680593114B22
:1056E4001A68104B9B889B0013440493059B5B88AA
:1056F4000333ADF80E300A4B03221A700499084B99
:105704005A68BDF80E3098000023009303460648FB
:1057140000F07CFF0346184607B05DF804FB00BFA9
:105724002C280020242800206421002000B583B008
:105734000A4B5B880A491846FFF780FC0346002B96
:1057440003D0FFF7C7FF019002E0FFF78DFF019040
:10575400019B184603B05DF804FB00BF2C28002011
:105764003028002008B50A4B06221A70084B5B88C3
:105774001946084A0B469B000B449B001344043310
:105784001B681846FFF7ACFB0346184608BD00BF6C
:105794002C280020FC27002008B5054B07221A708E
:1057A400034B00225A60FFF783FB0346184608BDEB
:1057B4002C28002008B50D48FFF7F6FE034683F0B9
:1057C4000103DBB2002B0BD0094B00221A70084BEB
:1057D40000225A80064B00225A6041F61D5302E013
:1057E400FFF7A4FF0346184608BD00BF2E2800207B
:1057F4002C28002082B0094B5B680193019B5B88D5
:105804000333ADF80230064B9A88BDF802301344D6
:105814009AB2034B9A8000BF02B070472C28002034
:105824002428002082B0184B1B680193174B5B8817
:105834001946174A0B469B000B449B001344043340
:105844001B68114A1360114B5B881946104A0B46BA
:105854009B000B449B0013440433019A1A600B4BC6
:105864005B881946084B9888094A0B469B000B44F1
:105874009B001344083302461A80034B02229A8089
:1058840000BF02B0704700BF242800202C2800204D
:10589400FC27002008B51A4B1B78072B2CD801A233
:1058A40052F823F0C9580200FD580200FD580200C6
:1058B400D5580200E1580200ED580200ED580200EC
:1058C400F5580200FFF73CFE0D4B01221A7014E05C
:1058D400FFF790FF0A4B02221A700EE0FFF7A2FFB7
:1058E400074B06221A7008E0054B07221A7004E0E1
:1058F400034B01221A7000E000BF00BF08BD00BFC7
:105904002C28002000B587B0019000910F23059347
:10591400019B002B04D0624B00225A600123BBE0A0
:10592400009B1B79032B00F2AB8001A252F823F0F9
:105934004559020053590200E1590200015A02007C
:10594400009B01221A71FFF7B3FA05909BE0002334
:105954008DF813300023ADF810302BE0BDF8102083
:10596400504913469B0013449B000B441B78022BA5
:105974001BD1BDF810204B4913469B0013449B00D8
:105984000B4400221A7001238DF81330BDF8102047
:10599400444913469B0013449B000B4404331B6887
:1059A4001846FFF79DFA059008E0BDF81030013362
:1059B400ADF81030BDF81030012BCFD99DF813305D
:1059C40083F00103DBB2002B5CD0354B01221A704B
:1059D400334B00225A6041F61D535DE0009B0022C8
:1059E4001A71314B02229A802F4B1B6819460023EF
:1059F40001222E4800F05CFE059044E0009B00224A
:105A04001A71294B1B681846FFF76AFA0590284B50
:105A14005B88ADF80E30244B1B680293BDF80E2052
:105A2400204913469B0013449B000B4404331B681A
:105A34001D4A1360BDF80E201A4913469B001344F7
:105A44009B000B440433029A1A60BDF80E20164BD7
:105A54009888144913469B0013449B000B44083355
:105A640002461A80104B02229A80BDF80E200D497E
:105A740013469B0013449B000B4400221A7002E05F
:105A840000BF00E000BF059B002B04D0044B0022A4
:105A94005A600E2300E00023184607B05DF804FBAB
:105AA400CC270020FC27002024280020642100208B
:105AB4002C28002000B587B001900091009B9B8AA0
:105AC4001A4613469B0013449B003C4A1344049318
:105AD400019B002B07D0009BDB8819460498FFF735
:105AE400CBF9012365E0049B5A68049B1B899B0046
:105AF40013440393009B9B7D062B4DD801A252F8BF
:105B040023F000BF4B5B02006F5B0200575B020097
:105B1400635B0200255B02007B5B0200955B020075
:105B2400274B00225A60009B9B69254A1360254934
:105B34002348FFF7D5FA034683F00103DBB2002BB9
:105B440001D00A2335E003990098FFF7EDFB059097
:105B540025E003990098FFF705FC05901FE00399E1
:105B64000098FFF7C9FC059019E003990098FFF726
:105B74001FFC059013E0009B06229A75104B5A688F
:105B8400104B1B8819461046FFF738FC059006E0B9
:105B940041F61D53059302E00F23059300BF059BB7
:105BA400002B05D0009BDB8819460498FFF764F9A5
:105BB400059B184607B05DF804FB00BFFC270020D6
:105BC400442800205028002000B585B001900091A1
:105BD400019B002B01D0012323E0009B1B79012BA7
:105BE4000BD0022B14D0002B16D1009B02221A7169
:105BF4000098FFF72DFC039012E00098FFF758FC83
:105C04000390039B0A2B0AD141F61D53039306E02C
:105C140041F61D53039303E00F23039300E000BFF9
:105C2400039B184605B05DF804FB000000B585B081
:105C34000190019B002B01D001233BE01F4B1B7BF8
:105C4400002B03D01D4B00221A7301E0FFF722FE44
:105C54001A4B1B78013B062B28D801A252F823F0DB
:105C6400815C0200895C0200915C0200995C020084
:105C7400B15C0200A15C0200A95C0200FFF79AFD7E
:105C8400039016E0FFF752FD039012E0FFF722FDA8
:105C940003900EE0FFF7E8FC03900AE0FFF762FDD3
:105CA400039006E0FFF778FD039002E00F230393CF
:105CB40000BF039B184605B05DF804FB2C280020A8
:105CC40000B589B001903F4B1B68002B05D13E48BD
:105CD400FFF7F2FA02463B4B1A603A4B1B68002B63
:105CE40004D13A4940F2795000F0FBFA354B1B6875
:105CF4001B78013B052B2CD801A252F823F000BFDE
:105D04001D5D02002D5D02002D5D02003D5D02005F
:105D14003D5D02004D5D02002A4B1B681946019847
:105D2400FFF7F0FD019017E0264B1B681946019818
:105D3400FFF7C0FE01900FE0224B1B681946019843
:105D4400FFF742FF019007E00198FFF76FFF019012
:105D540002E00F23019300BF019B002B2BD003AB68
:105D64001422002118460AF0A7FF019B41F61D5298
:105D7400934204D1002304930023019301E0019B87
:105D84000493104B1B6803AA11461846FEF732FF12
:105D940003AB1846FEF710FF0A4B00221A600A48AC
:105DA400FFF79AFAFFF7A6FA034683F00103DBB282
:105DB400002B02D187E700BF00E000BF00BF09B09D
:105DC4005DF804FB542800205828002068170300BD
:105DD40008B501210548FEF7A7FE0346002B02D1B2
:105DE4000020FFF76DFF00BF08BD00BFD4270020CF
:105DF40000B583B00190019B5B681846FFF760FF14
:105E040000BF03B05DF804FB00B58BB003900291B2
:105E140001928DF803300023ADF824300023ADF84F
:105E24002630514B1B78DBB283F00103DBB2002B2D
:105E340001D0022393E0029B002B01D105238EE0C5
:105E4400029B1B884FF6FF72934203D0029B5B8830
:105E5400002B01D1042382E0029B5B681846FEF705
:105E640056FE034683F00103DBB2002B01D003236B
:105E740075E0019B002B11D1029B9B68ADF8263085
:105E84000DF11A02BDF8263011461846FFF73CF80A
:105E94000890089B002B09D0089B60E0019B1B889D
:105EA400ADF81A30019B5B88ADF8263005AB184677
:105EB400FFF7DEF90790079B002B09D1BDF81A20E4
:105EC400BDF8263011461846FFF786F8082346E049
:105ED400079B9DF803201A70079B00229A75BDF852
:105EE4001A20079B9A82029B5A68079B1A61FFF744
:105EF4009BF80246079BDA60029B1A88079B1A816B
:105F0400029B5A88079B9A80079BBDF82620DA805B
:105F14009DF80330032B06D1079B04229A75039B3B
:105F24001A68079B9A61079BBDF824205A8105AB28
:105F34001846FFF7B3F9039B002B0DD0039B0022F7
:105F44005A60079BDA68039B1A60039B00229A72CB
:105F5400064B1A89039B1A81FFF73AFF0023184660
:105F64000BB05DF804FB00BFCC2700202C280020D8
:105F740000B585B001900091019B002B02D0009BDD
:105F8400002B01D1052329E00DF10A0319460198DC
:105F9400FFF7A6F80346002B1FD0019B5B68039311
:105FA400BDF80A301A4613469B0013449B0008337D
:105FB4000C4A1344043301211846FEF7CDFD009B1F
:105FC400039A1A60019B5B6803F10C02009B5A6000
:105FD400019B01229A72002300E00A23184605B0AF
:105FE4005DF804FBFC27002000B585B00190019BFF
:105FF400002B01D1052339E00DF10A03194601985C
:10600400FFF76EF80346002B2DD0BDF80A30194671
:10601400184A0B469B000B449B0013440C331B682B
:10602400002B1DD0019B9B7A002B19D0BDF80A30A0
:106034001A46104913469B0013449B000B440C332F
:106044001B68591E0B4813469B0013449B000344D2
:106054000C331960019B00229A720023039304E01D
:106064000623039301E00A230393039B184605B018
:106074005DF804FBFC27002000B585B001900B46B9
:10608400ADF80230134B1B78DBB283F00103DBB2B3
:10609400002B01D0022319E0019B002B01D1052321
:1060A40014E00DF10A02BDF8023011461846FEF75D
:1060B4002BFF0390039B002B07D1BDF80A20019B03
:1060C4001A80019BBDF802205A80039B184605B034
:1060D4005DF804FBCC27002000B585B001901F4B70
:1060E4001B78DBB283F00103DBB2002B01D0022367
:1060F4002FE0019B002B01D105232AE0019B1B8883
:10610400022B01D9042324E0019B1B881A46134661
:106114009B0013449B00124A13440293019B5B8827
:106124000333029A5289934210DC019B5A88019BE3
:106134001B8819461046FEF74FFF019B00221A8068
:10614400019B00225A800023039301E0042303935C
:10615400039B184605B05DF804FB00BFCC27002064
:10616400FC27002000B583B0019000910223002297
:1061740000990198FFF748FE0346184603B05DF8FE
:1061840004FB00B585B0039002910192019B002BA2
:1061940001D1052306E00223019A02990398FFF72F
:1061A40033FE0346184605B05DF804FB00B583B022
:1061B40001900091019B002B01D1052306E00323EC
:1061C400002200990198FFF71FFE0346184603B00A
:1061D4005DF804FB00B585B00346ADF80630184BF6
:1061E4001B78DBB283F00103DBB2002B01D0022366
:1061F40022E0BDF806304FF6FF72934201D104232A
:106204001AE002AB1846FFF733F80390039B002B08
:1062140001D1082310E0039B05221A70039B01227D
:106224001A71039BBDF80620DA8002AB1846FFF70B
:1062340035F8FFF7CDFD0023184605B05DF804FBE3
:10624400CC27002000B585B0029201930346ADF837
:106254000E300B46ADF80C3003A90DF10E00019B76
:10626400029AFEF797FF0346184605B05DF804FB53
:1062740000B585B0034602910192ADF80E300DF1E0
:106284000E01019B029A0020FEF784FF0346184684
:1062940005B05DF804FB00B585B003460291019298
:1062A400ADF80E300DF10E00019B029A0021FEF7AD
:1062B40071FF0346184605B05DF804FB82B00190F7
:1062C4000091019B002B02D0009B002B01D10523E0
:1062D40004E0019B1A68009B1A600023184602B070
:1062E400704700B585B003460091ADF80630BDF89F
:1062F4000630ADF80830009B039302AB1A46002128
:1063040044F20200FDF7A2FC00BF05B05DF804FBF7
:1063140086B001900091019B53E8011F8AB2D8898D
:1063240002449889824228BF121A1889824202BF05
:10633400BFF32F8F002307E0C2EA010243E80120E4
:106344000028E9D14FF001038DF80F300590029138
:106354000492029A009B1A609DF80F30DBB2184633
:1063640006B0704784B00190019951E8013FC3EA37
:10637400034341E80132002AF7D10392029300BF9C
:1063840004B0704786B001900091019B53E8021F4E
:106394001FFAA1F2D888824202BFBFF32F8F0023D5
:1063A4000DE0D88902449889824228BF121AC1EAB2
:1063B400024243E802200028E8D14FF001038DF89F
:1063C4000F30059002910492029A009B1A609DF886
:1063D4000F30DBB2184606B0704784B001900199C3
:1063E40051E8023FC3EA234341E80232002AF7D1CD
:1063F4000392029300BF04B0704700B583B00190CC
:106404000091009B19460198FFF782FF0346002B79
:1064140005D0019B1B68009A1288134400E00023F6
:10642400184603B05DF804FB00B583B001900091F9
:10643400009B1A88009B5B889A4204D10198FFF75D
:1064440091FF012300E00023184603B05DF804FB2C
:1064540000B583B001900091009B19460198FFF7A5
:1064640091FF0346002B05D0019B1B68009A5288BC
:10647400134400E00023184603B05DF804FB00B5A4
:1064840083B001900091009B1A88009B5B889A421C
:1064940004D10198FFF7A1FF012300E0002318466F
:1064A40003B05DF804FB000000B583B001900B4617
:1064B4008DF80330019B002B03D10849AF20FFF76F
:1064C40010FF019BDA689DF803300199098A01FBEA
:1064D40003F31344184603B05DF804FBCC17030020
:1064E40000B583B001900091019B002B03D10849B2
:1064F400BC20FFF7F6FE009B019AD2689B1A019A12
:10650400128AB3FBF2F3DBB2184603B05DF804FB66
:10651400CC17030000B585B00190019B002B03D17B
:106524001F49EC20FFF7DDFE0023039300238DF8C1
:106534000A300DF10A031846FEF79CFA019B1B680A
:106544001A68019B5B689A4220D9019B1B681A68F0
:10655400013A1A601B681B7819460198FFF7A4FFDB
:106564000390019B9B681A46019B1B681B68D31A06
:106574008DF80B30019B1B681B799DF80B209A4208
:1065840004D9019B1B689DF80B201A719DF80A30F1
:106594001846FEF785FA039B184605B05DF804FB20
:1065A400CC17030010B584B001900091019B002B1F
:1065B40004D115494FF48870FFF793FE009B002B1C
:1065C40004D1114940F21110FFF78BFE009B039395
:1065D40000238DF80B300DF10B031846FEF74AFA31
:1065E400019B1B681C68621C1A6003990198FFF7E1
:1065F40077FF034623709DF80B301846FEF750FAD8
:1066040000BF04B010BD00BFCC17030010B586B0A6
:106614000590049103920293059B002B02D0039BE7
:10662400002B01D10E2340E0059B1B68002B01D1F8
:1066340008233AE0029B002B0AD0059B5B685A684A
:10664400029BB3FBF2F102FB01F29B1A002B01D077
:1066540009232AE0049800F082F8034683F001033A
:10666400DBB2002B14D1039B184600F078F80346E4
:1066740083F00103DBB2002B0AD1029A0499059836
:1066840000F053F8034683F00103DBB2002B01D082
:1066940010230AE0059B1B68DC68089B0093029B9F
:1066A400039A04990598A0470346184606B010BDFE
:1066B40010B584B00390029101920093039B002BC8
:1066C40001D10E232EE0039B1B68002B01D108236C
:1066D40028E0019B002B01D1092323E0039B5B6885
:1066E4001B685A1E029B1340002B10D1039B5B684E
:1066F4001B68019A02FB03F31A460299039800F0FF
:1067040014F8034683F00103DBB2002B01D01023FD
:1067140008E0039B1B681C69009B019A029903987B
:10672400A0470346184604B010BD84B003900291FC
:106734000192039BDA68029B9A4209D8029A019B50
:1067440013445A1E039B1B699A4201D8012300E09B
:10675400002303F00103DBB2184604B0704782B093
:106764000190019B03F00303002B0CBF01230023C2
:10677400DBB2184602B0704729DF704700BF1846E5
:1067840028DF704700BF184600B589B0019000911A
:10679400019B1B689B68002B31D003AB00221A605D
:1067A4005A609A60DA601A61009B0493019B9B68AB
:1067B4000793019B1B79002B02D0012B0AD017E011
:1067C40001238DF80C30019B1B690593019B5B69C8
:1067D40006930DE002238DF80C30019BDB684FF427
:1067E400805202FB03F30593019B5B69069300BF90
:1067F400019B1B689B6803AA1046984700E000BFF2
:1068040009B05DF804FB00B587B00190019B5A699B
:10681400019B9B69D31AB3F5805F28BF4FF4805363
:1068240005930422059BB3FBF2F3012B38BF01232C
:106834000593019B1A69019B9B6913440493019B73
:10684400DB681A46019B9B6913440393059A0399D9
:106854000498FFF791FF0346184607B05DF804FB60
:1068640000B583B00190019BDA68019B1B69134456
:106874001846FFF785FF0346184603B05DF804FB8E
:1068840008B5034B03491846FFF7F9FD00BF08BDDF
:106894005C2800208428002008B5084B08491846C5
:1068A400FFF7D6FD0246074B1A60064B1B68002B08
:1068B40014BF01230023DBB2184608BD5C28002066
:1068C400842800208028002000B583B0294B1B7A3F
:1068D400002B0BD1FFF7E0FF034683F00103DBB28B
:1068E400002B03D0234B00225A6040E0214B0222AC
:1068F4001A72214B1B681B79002B02D0012B07D085
:106904000DE01D4B1B681846FFF77DFF019009E061
:10691400194B1B681846FFF7A3FF019002E00323FD
:10692400019300BF019B002B02D0112B0CD00FE070
:10693400104B1B7C83F00103DBB2002B16D000212B
:10694400022000F06DF811E00A4B01221A720EE0E9
:10695400094B1B6803211846FFF716FF054B00225D
:106964001A72044B00225A6000BF00E000BF03B05B
:106974005DF804FB6C2800208028002084B001907E
:106984001B4B0022DA60019B1B79002B02D0012BE8
:1069940019D028E0019B5A69019B9B69D31AB3F56E
:1069A400805F28BF4FF480530393019B9A69039B34
:1069B4001A44019B9A61019B9A69019B5B699A4203
:1069C4000ED1012310E0019B1B695A1C019B1A6123
:1069D400019B1A69019B5B699A4203D1012303E07D
:1069E40000BF00E000BF0023184604B0704700BF9A
:1069F4006C28002082B00190084BDB680133074A01
:106A0400D360064BDB68082B04D9044B0022DA6000
:106A1400012300E00023184602B070476C280020D0
:106A240000B585B001900091244B1B7A012B33D023
:106A3400022B00D03FE000238DF80F30019B022B86
:106A440002D0032B09D011E01D4B1B681846FFF739
:106A540095FF03468DF80F3008E0194B1B68184664
:106A6400FFF7C8FF03468DF80F3000BF9DF80F30C5
:106A7400002B13D0114B00221A72114B1A68019B80
:106A8400022B01D1002300E00D2319461046FFF725
:106A94007BFEFFF7F5FE01E000BF00E000BF074BFF
:106AA4005B7C83F00103DBB2002B02D0FFF70CFF09
:106AB40001E009F001FE05B05DF804FB6C2800203C
:106AC4008028002082B0034600918DF80730064BE1
:106AD40001225A74044B1B7A002B0CBF01230023A0
:106AE400DBB2184602B070476C28002000B583B0B2
:106AF400034600918DF807309DF80730012B03D031
:106B04009DF80730032B0DD1084B00225A749DF8D1
:106B14000730012B0CBF01230023DAB2034B1A7494
:106B2400FFF7D2FE00BF03B05DF804FB6C28002021
:106B340010B487B001900091019B009A53E8004F74
:106B440004EB020043E8000191F0000FF6D1059434
:106B540004900391049B184607B05DF8044B7047FA
:106B640010B487B001900091019B009A53E8004F44
:106B7400A4EB020043E8000191F0000FF6D1059464
:106B840004900391049B184607B05DF8044B7047CA
:106B940000B58BB001900091019B1B8A043B0793C5
:106BA400009A079B1344DA1C079BB2FBF3F38DF89E
:106BB4001B300198FFF7AEFC0590059B002B01D11B
:106BC400002338E0059B00221A71059B01225A71AB
:106BD400079B9AB2059BDA80059B09939DF81B30AD
:106BE400013B0493099B019A1A60002308931DE05A
:106BF4000198FFF78FFC0390039B002B0ED0059B9D
:106C04005B790133DAB2059B5A71099B039A1A60C6
:106C1400039B019A1A60039B099304E0059800F012
:106C24000EF8002307E0089B01330893089A049B9D
:106C34009A42DDD3059B18460BB05DF804FB00B502
:106C44008BB00190019B0793079B5B798DF81B30F8
:106C5400019B08939DF81B30013B05930023099386
:106C640005E0089B1B680893099B01330993099A63
:106C7400059B9A42F5D3089B1B680493019B0893D8
:106C8400002309930BE0089B1B680393089904985D
:106C9400FFF788FC039B0893099B013309939DF834
:106CA4001B20099B9A42EED800BF0BB05DF804FB91
:106CB40000B585B00190019B0393039B043301212C
:106CC4001846FFF735FF00BF05B05DF804FB00B5BB
:106CD40087B00190019B0593059B0433012118465D
:106CE400FFF73EFF0346039303AB0493049B1B7817
:106CF400002B02D10198FFF7A2FF00BF07B05DF897
:106D040004FB000000B58DB0039002910192009342
:106D1400039B0693069BDB880593039B0B93009BC5
:106D24001A1D059BB2FBF3F30A93009B0433059AE7
:106D3400B3FBF2F2059901FB02F29B1A0993009A44
:106D4400019B1A44059B1344DA1C059BB2FBF3F325
:106D54008DF81330069B5B799DF813209A420AD96B
:106D64002749BA20FFF7BDFA05E00B9B1B680B937C
:106D74000A9B013B0A930A9B002BF6D1002308933C
:106D8400059A099BD31A0793079A019B934228BF3C
:106D9400134607932DE09DF83830002B0BD0029A50
:106DA400089BD0180B9A099B13440433079A19467D
:106DB40009F058FF0AE00B9A099B1344181D029A24
:106DC400089B1344079A194609F04CFF00230993C2
:106DD4000B9B1B680B93019A079BD31A0193089A88
:106DE400079B13440893059A019B934228BF1346BB
:106DF4000793019B002BCED100BF0DB05DF804FBBF
:106E04001C18030000B587B0059004910392029307
:106E140000230093029B039A04990598FFF772FFDD
:106E240000BF07B05DF804FB00B583B0019000918A
:106E3400019B002B03D110495020FFF752FA009B0D
:106E4400002B03D10C495120FFF74BFA019B009A08
:106E54001A60019B1B681A68019B5A60019B5A685F
:106E6400019B1B685B689A4202D1019B00225A6015
:106E740000BF03B05DF804FB6819030000B583B0DC
:106E84000190019B002B03D114496320FFF729FAD9
:106E9400019B1B68002B03D110496420FFF721FAE2
:106EA400019B5B68002B14D0019B5B681A46019B15
:106EB4001B689B6813441A46019B5A60019B5A68DD
:106EC400019B1B685B689A4204D1019B00225A60B3
:106ED40000E000BF03B05DF804FB00BF68190300C5
:106EE40000B585B00190019800F00EF80390039B63
:106EF400002B01D0039B00E0024B184605B05DF85F
:106F040004FB00BFD419030086B00190164B05930F
:106F1400164B04931FE0049A059BD31ADB10DA0F77
:106F240013445B10DB00059A13440393039B1B6813
:106F34000293029A019B9A4202D9039B04930AE0AA
:106F4400029A019B9A4203D2039B0833059302E001
:106F5400039B5B6804E0059A049B9A42DBD30023FD
:106F6400184606B0704700BFF01C0300E01D030084
:106F740082B001900B46ADF80230019B1A68BDF84F
:106F84000230012101FA03F31A43019B1A6000BF86
:106F940002B0704782B001900B46ADF80230019BFD
:106FA4001A68BDF80230012101FA03F3DB431A40E9
:106FB400019B1A6000BF02B0704782B001900B467B
:106FC400ADF80230BDF80230012202FA03F31A468A
:106FD400019B1340002B14BF01230023DBB218468E
:106FE40002B0704700B585B001900023ADF80E30B3
:106FF40010E0BDF80E3019460198FFF7DEFF034696
:10700400002B02D0BDF80E300AE0BDF80E3001337B
:10701400ADF80E30BDF80E301F2BEAD94FF6FF73D2
:10702400184605B05DF804FB00B587B005900491DF
:1070340011461A460B46ADF80E3013468DF80D3046
:10704400BDF80E209DF80D300093134601220499DB
:10705400059800F004F800BF07B05DF804FB00B524
:1070640087B0039002910192ADF80230039B002B8C
:107074003BD0029B002B38D0019B002B35D0002342
:1070840005932FE0059B5B00039A13441B88BDF80E
:1070940002209A4223D1002304931BE09DF8203060
:1070A400002B0AD0049B9B00029A1344059A92B2C7
:1070B40011461846FFF75CFF09E0049B9B00029A07
:1070C4001344059A92B211461846FFF763FF049BD6
:1070D40001330493049A019B9A42DFD305E0059B94
:1070E40001330593059B1F2BCCD907B05DF804FB36
:1070F40000B587B0039002911346ADF80630039BA8
:10710400002B19D00023059313E0059B5B00039A21
:1071140013441B88BDF806209A4207D1059B9BB2F5
:1071240019460298FFF749FF034606E0059B013321
:107134000593059B1F2BE8D90023184607B05DF87B
:1071440004FB00B597B003900291019200230493CD
:10715400029B002B1ED00023159318E0159B9BB2B5
:1071640019460198FFF729FF0346002B0CD0049B16
:107174005A1C0492159A520002990A4412885B0020
:1071840016A90B4423F8442C159B01331593159B26
:107194001F2BE3D9039B184604AB4422194609F07C
:1071A40061FD039817B05DF804FB000082B003464C
:1071B4008DF8073008499DF907305B099DF80720D1
:1071C40002F01F02012000FA02F2203341F82320CA
:1071D40000BF02B0704700BF00E100E082B0019040
:1071E4004FF08042019BC2F8083300BF02B07047E1
:1071F40082B003468DF807309DF8073003F18043D1
:1072040001221A6000BF02B0704784B00346ADF893
:107214000630BDF8063003F1804300221A60BDF841
:10722400063003F180431B680393039B00BF04B043
:10723400704782B00346ADF80630BDF8063003F15E
:1072440080431B68002B14BF01230023DBB21846C4
:1072540002B0704782B003468DF807304FF0804289
:107264009DF8073003F00303C2F8183500BF02B0DD
:1072740070474FF08043D3F818341B0C03F001031C
:10728400002B14BF01230023DBB218467047000013
:1072940082B003468DF807300A4A9DF907305B092E
:1072A40052F823209DF8073003F01F03012101FA4F
:1072B40003F31340002B14BF01230023DBB2184651
:1072C40002B0704700E100E008B50020FFF7E0FFDE
:1072D400034683F00103DBB2002B03D00721002017
:1072E40000F096F900BF08BD08B509F001FA03469D
:1072F40083F00103DBB2002B03D109498420FEF79C
:10730400F0FF0C20FFF774FF00BFFFF7B2FF034646
:10731400002BFAD1034B00229A7000BF08BD00BFB6
:10732400E81D03008828002000B583B000230193E2
:10733400134B1B78002B02D0852301931BE0104BC9
:1073440000229A600E4B00225A600D4B00221A61F3
:107354000B4B0022DA60FFF7B7FF09F0C9F90346C7
:1073640083F00103DBB2002B02D00120FFF772FF90
:10737400034B01221A70019B184603B05DF804FB0D
:107384008828002084B00190019B1B680393039B11
:10739400002B03D0039B1A68019B1A60039B1846B9
:1073A40004B0704700B583B0164B1B78002B04D192
:1073B40015494FF48E70FEF794FF124BDB68002BD7
:1073C40004D1114940F21D10FEF78BFF00238DF804
:1073D40007300DF107031846FDF74CFB094BDB683A
:1073E400013B084AD360074BDB68002B01D1FFF750
:1073F4007BFF9DF807301846FDF752FB00BF03B032
:107404005DF804FB88280020E81D030000B585B062
:1074140003468DF807309DF80730002B02D10C4B42
:10742400039301E00B4B03930398FFF7ABFF029028
:10743400029B002B06D0029B5B689DF80720104638
:107444009847F1E700BF00BF05B05DF804FB00BF3B
:10745400902800209828002008B54FF48070FFF78A
:10746400E8FE0346002B0CD04FF48070FFF7CDFEEE
:107474000120FFF7B3FE0E4B01225A700020FFF7E4
:10748400C5FF4FF48270FFF7D4FE0346002B0CD0E7
:107494004FF48270FFF7B9FE0220FFF79FFE044B02
:1074A40001229A700120FFF7B1FF00BF08BD00BFA1
:1074B4008828002000B583B001900091019B002B27
:1074C40002D10020FFF7A2FF00BF03B05DF804FB68
:1074D40000B585B0034600918DF807309DF807305C
:1074E400012B08D0032B25D0002B00D032E0002044
:1074F400FFF75CFE2EE000238DF80F300DF10F0333
:107504001846FDF7B7FA154B1B7883F00103DBB27D
:10751400002B01D0FFF708FF104BDB6801330F4A43
:10752400D3600E4B01229A709DF80F301846FDF778
:10753400B7FA0FE0094B1B78002B04D1084940F23D
:107544005B20FEF7CEFE0721002000F061F8FFF774
:1075540029FF00BF00BF05B05DF804FB88280020A8
:10756400E81D030082B003468DF8073007499DF9F2
:1075740007305B099DF8072002F01F02012000FA82
:1075840002F241F8232000BF02B0704700E100E09E
:1075940082B003468DF8073008499DF907305B092E
:1075A4009DF8072002F01F02012000FA02F2603366
:1075B40041F8232000BF02B0704700BF00E100E0A3
:1075C40082B0034600918DF807309DF90730002BF7
:1075D4000CDA0D499DF8073003F00F03043B009AC1
:1075E400D2B25201D2B20B441A7609E007499DF98E
:1075F4000730009AD2B25201D2B20B4483F800236E
:1076040000BF02B0704700BF00ED00E000E100E001
:1076140000B583B003460A468DF8073013468DF84B
:1076240006309DF80630012B03D99DF80630032B54
:107634000CD99DF80630042B03D99DF80630072B8E
:1076440004D90D494FF49270FEF74BFE9DF80620C5
:107654009DF9073011461846FFF7B2FF9DF9073030
:107664001846FFF795FF9DF907301846FFF77AFF94
:1076740000BF03B05DF804FB3C1E030084B001901E
:107684000B46ADF80230BDF80230019A13440022D3
:107694001A60BDF80230019A13441B680393039BDC
:1076A40000BF04B0704782B001900B46ADF80230C1
:1076B400BDF80230019A13441B68002B14BF012348
:1076C4000023DBB2184602B0704782B001900091EB
:1076D400019BD3F80423009B1340002B14BF012308
:1076E4000023DBB2184602B0704782B001900091CB
:1076F400019B009AC3F8082300BF02B0704784B00E
:107704000190019BD3F880340393019B039AC3F83F
:107714008024039B184604B0704782B00190019BFB
:10772400D3F81835DBB2184602B0704782B0019026
:107734000B468DF803309DF80320019BC3F81C25EC
:1077440000BF02B0704782B001900B468DF8033041
:107754009DF80330019A134401221A6000BF02B05D
:10776400704784B001900B46ADF80230BDF802308A
:10777400019A134400221A60BDF80230019A13449E
:107784001B680393039B00BF04B0704782B0019051
:107794000B46ADF80230BDF80230019A13441B6861
:1077A400002B14BF01230023DBB2184602B070473C
:1077B40082B001900091019BD3F80022009BDB432F
:1077C4001A40019BC3F8002200BF02B0704784B086
:1077D4000190019BD3F880340393019B039AC3F86F
:1077E4008024039B184604B0704782B00190019B2B
:1077F400D3F84C35184602B0704782B00190019B13
:10780400D3F83C35184602B0704700B585B00190F6
:1078140000914FF48E710198FFF730FF009B9B6835
:10782400009A928A92B213441B788DF80F30009B11
:107834009B8A9BB201339AB2009B9A829DF80F30C7
:1078440019460198FFF772FF00BF05B05DF804FB0D
:1078540010B582B001900091009BDB7D002B08D114
:107864004FF484710198FFF709FF0198FFF755FF62
:1078740016E04FF484710198FFF700FF009BDB686A
:10788400009A527ED2B29C180198FFF746FF034635
:107894002370009B5B7EDBB20133DAB2009B5A7625
:1078A40002B010BD00B589B003900B4601928DF86B
:1078B4000B3001238DF810309DF80B308DF8183003
:1078C400019B0593039B5B68039A116804AA104605
:1078D400984700BF09B05DF804FB00B587B001907C
:1078E4000B468DF8033000238DF808309DF80330E3
:1078F4008DF81030019B9B680393019B00229A75BD
:10790400019B5B68019A116802AA1046984700BF60
:1079140007B05DF804FB00B589B0019000914FF405
:1079240000710198FFF7D1FE0346002B39D04FF4C4
:1079340092710198FFF7B7FE0346002B31D04FF444
:1079440092710198FFF79AFE4FF401710198FFF7C5
:10795400CCFE009B9B7E83F00103DBB2002B03D0A3
:1079640004210198FFF7EFFE02238DF808300198F7
:10797400FFF7C5FE03460593009BDB7D8DF81030B1
:10798400009BDB680393009B0022DA75009B0022B6
:107994001A76009B5B68009A116802AA1046984701
:1079A40056E004210198FFF790FE0346002B4FD0C8
:1079B4004FF484710198FFF776FE0346002B47D0FD
:1079C40000990198FFF744FF009BDA7D009B5B7EE2
:1079D400DBB29A423CD1009B1B7E002B1CD0009B47
:1079E400DB680793009B5B7E8DF81B30009B1A7E3F
:1079F400009BDA75009B1A69009BDA60009B0022E9
:107A04001A76009B00225A769DF81B30079A194675
:107A14000098FFF747FF1BE0009B9B7E83F0010368
:107A2400DBB2002B03D004210198FFF78CFE4FF446
:107A340001710198FFF759FE009B0022DA75009B43
:107A44005B7ED9B2009BDB681A460098FFF72AFFD9
:107A54004FF48E710198FFF726FE0346002B1BD0CE
:107A6400009B9B8A9AB2009B9B7D9BB29A4204D254
:107A740000990198FFF7C9FE0EE04FF48E7101984A
:107A8400FFF7FCFD009B9B7D002B05D0009B9B7D9D
:107A940019460098FFF721FF4FF4A2710198FFF7F0
:107AA40002FE0346002B1CD04FF4A2710198FFF78D
:107AB400E5FD009B9B7E002B03D000210198FFF77E
:107AC40042FE009BDB7D002B0BD0009B0022DA756D
:107AD400009B5B7ED9B2009BDB681A460098FFF7D7
:107AE400E1FE00BF09B05DF804FB00B589B0019068
:107AF40000914FF492710198FFF748FE0346002B62
:107B040024D04FF492710198FFF72BFE02238DF8D5
:107B140008300198FFF75BFE034605930198FFF7D1
:107B24006CFE0346DBB28DF81030009BDB680393D8
:107B3400009B0022DA75009B00221A76009B5B688A
:107B4400009A116802AA1046984741E04FF48871E0
:107B54000198FFF71BFE0346002B39D04FF48871C0
:107B64000198FFF7FEFD0198FFF747FE03468DF8E5
:107B74001F30009BDB7D9DF81F209A4228D1009B7B
:107B84001B7E002B19D0009BDB68069320210198F3
:107B9400FFF70EFE009B1A7E009BDA75009B1A69A4
:107BA400009BDA60009B00221A769DF81F30069A2B
:107BB40019460098FFF776FE0AE0009B0022DA756A
:107BC400009BDA689DF81F3019460098FFF76AFE9B
:107BD4004FF4A2710198FFF7D9FD0346002B16D08C
:107BE4004FF4A2710198FFF7BCFD009BDB7D002BD5
:107BF4000DD0009B0022DA750198FFF7FEFD0346C5
:107C0400D9B2009BDB681A460098FFF74BFE4FF48D
:107C140090710198FFF7BAFD0346002B11D04FF481
:107C240090710198FFF79DFD009B9B7D002B08D070
:107C34000198FFF7DAFD0346DBB219460098FFF717
:107C44004CFE00BF09B05DF804FB000008B5074B0B
:107C54001B7F002B04D005490548FFF746FF03E0CE
:107C640002490348FFF757FE00BF08BD9C280020C7
:107C74000020004082B001900B468DF803309DF83F
:107C84000330019A134401221A6000BF02B0704706
:107C940084B001900B46ADF80230BDF80230019A71
:107CA400134400221A60BDF80230019A13441B6881
:107CB4000393039B00BF04B0704782B001900B464E
:107CC400ADF80230BDF80230019A13441B68002B52
:107CD40014BF01230023DBB2184602B0704782B000
:107CE40001900091019B009AC3F8042300BF02B0E5
:107CF400704782B001900091019B009AC3F8082359
:107D040000BF02B0704782B00190019B0522C3F806
:107D1400002500BF02B0704782B00190019B002291
:107D2400C3F8002500BF02B0704784B003900291ED
:107D34000192039B029AC3F80825039B019AC3F896
:107D44000C2500BF04B0704782B001900091019BE4
:107D5400009AC3F8242500BF02B0704784B0019094
:107D6400019BD3F8C4340393019B039AC3F8C4243E
:107D7400039B184604B0704782B001900B468DF8FF
:107D840003309DF80320019BC3F8882500BF02B08F
:107D9400704782B00190019BD3F81835DBB21846C6
:107DA40002B0704782B001900B468DF803309DF805
:107DB4000320019BC3F81C2500BF02B0704782B0AA
:107DC40001900091019B009AC3F8002200BF02B009
:107DD400704784B00190019B1B0B8DF80F309DF907
:107DE4000F30184604B0704700B583B00190019B72
:107DF4001B681F2B04D905494FF4E870FEF771FA8C
:107E04004FF0A043184603B05DF804FB281F03009D
:107E140000B585B0019001AB1846FFF7E5FF03906C
:107E2400019B012202FA03F31946039800F035F886
:107E340000BF05B05DF804FB00B585B0019001AB4F
:107E44001846FFF7D1FF0390019B012202FA03F3C6
:107E54001946039800F02BF800BF05B05DF804FB49
:107E640000B585B0019001AB1846FFF7BDFF039044
:107E7400039800F00AF80246019B22FA03F303F088
:107E84000103184605B05DF804FB82B00190019B24
:107E9400D3F81035184602B0704782B001900091B3
:107EA400019B009AC3F8082500BF02B0704782B056
:107EB40001900091019B009AC3F80C2500BF02B009
:107EC4007047000084B00190244B0393019B002B66
:107ED40040D0234B1A680399019B00BF00BF00BF29
:107EE40000BF00BF00BF00BF00BF8A422FD000BF49
:107EF40000BF00BF00BF00BF00BF00BF00BF00BF86
:107F040000BF00BF00BF00BF00BF00BF00BF00BF75
:107F140000BF00BF00BF00BF00BF00BF00BF00BF65
:107F240000BF00BF00BF00BF00BF00BF00BF00BF55
:107F340000BF00BF00BF00BF00BF00BF00BF00BF45
:107F440000BF00BF00BF00BF00BF00BF00BF013BB8
:107F5400C3D1019300BF04B0704700BF0024F400F4
:107F64008C21002084B0019003230393019B03F030
:107F74000103002B02D04FF402430393019B03F04F
:107F84000203002B02D048F201230393019B03F068
:107F94000403002B02D048F202230393039B1846E8
:107FA40004B0704700B585B001904FF0A042019B2A
:107FB4001B6803F5E07340F20C6142F823104FF0A4
:107FC400A042019B5B6803F5E07340F20C6142F848
:107FD4002310019B1B681846FFF71AFF019B5B687F
:107FE4001846FFF715FF4FF0A042019B1B6803F5ED
:107FF400E07340F20D6142F823104FF0A042019B60
:108004005B6803F5E07340F20D6142F8231004202D
:10801400FFF758FF002303931EE0019B5B6818469B
:10802400FFF71EFF0346002B03D0039B002B17D141
:1080340024E0019B1B681846FFF7FEFE0420FFF7AF
:1080440041FF019B1B681846FFF7E2FE0420FFF77F
:1080540039FF039B01330393039B082BDDDD00E011
:1080640000BF019B5B681846FFF7E6FE0420FFF79C
:1080740029FF019B5B681846FFF7CAFE05B05DF84F
:1080840004FB000000B589B00390029101920093B3
:10809400029B002B03D13F49F520FEF722F9029BF6
:1080A4001A68029B5B689A4203D13A49F620FEF7AC
:1080B40018F9039B1B791A4613469B001344DB00F3
:1080C400354A13440793079B93F82230002B03D0BF
:1080D40008230693069B59E0079B019A1A60079BA5
:1080E400009A5A60079B00229A60079B002283F83B
:1080F4002520079B002283F82420029B9A7B079B60
:1081040083F82720029B5B7B002B02D00298FFF7A9
:1081140049FF4FF0A042029B1B6803F5E07340F255
:108124000C6142F823104FF0A042029B5B6803F5F8
:10813400E07340F20C6142F82310039B1B68059323
:10814400029B1968029B5B681A460598FFF7EDFDD0
:10815400029B9B6819460598FFF7F6FD079B1B6871
:10816400002B0CD0039B1B681846FFF732FE034616
:108174001A46029B1B7B19461046FFF749FA079BD8
:10818400012283F8222000230693069B184609B097
:108194005DF804FB641F0300BC28002000B585B013
:1081A4000190019B1B791A4613469B001344DB0084
:1081B4000D4A13440393039B93F82230012B04D0FC
:1081C4000A4940F27710FEF78CF8019B1B68029372
:1081D4000298FFF798FD039B022283F8222000BF38
:1081E40005B05DF804FB00BFBC280020641F030039
:1081F40000B585B003900291009313468DF80730C3
:10820400009B1B789DF807209A4210D9009B1B788D
:108214001A46029B13441B7819460398FFF7C2FDC4
:10822400009B1B780133DAB2009B1A700DE09DF8B5
:108234001830002B05D01C210398FFF71BFD0023E9
:1082440004E014210398FFF715FD0123184605B037
:108254005DF804FB10B584B00390029100931346BB
:108264008DF80730009B1B789DF807209A4228D987
:10827400009B1B781A46029B9C180398FFF789FD04
:1082840003462370009B1B780133DAB2009B1A70FB
:10829400009B1B781A469DF80730013B9A4204D193
:1082A40002210398FFF78BFD05E0009B1B789DF8E6
:1082B40007209A4204D020210398FFF7DBFC00E05A
:1082C40000BF04B010BD00B589B0059004910392BD
:1082D4000293049B1B78002B05D1039B1B789DF80C
:1082E40028209A4201D1012300E000238DF81F3099
:1082F4009DF81F3003F001038DF81F30049B1B7899
:10830400002B0FD04FF492710598FFF7C1FC4FF486
:108314008E710598FFF7BCFC4FF484710598FFF744
:10832400B7FC71E04FF492710598FFF7C6FC034661
:10833400002B0CD04FF492710598FFF7A9FC14217F
:108344000598FFF797FC049B01221A705CE04FF438
:108354008E710598FFF7B1FC0346002B2BD04FF428
:108364008E710598FFF794FC4FF492710598FFF70E
:10837400A4FC0346002B0CD04FF492710598FFF730
:1083840087FC14210598FFF775FC049B01221A70E1
:108394003AE09DF828209DF82C300093039B029925
:1083A4000598FFF725FF034683F00103DBB2002B9A
:1083B4002AD000233CE04FF484710598FFF77DFC3C
:1083C4000346002B20D04FF484710598FFF760FC1E
:1083D4004FF492710598FFF770FC0346002B0CD004
:1083E4004FF492710598FFF753FC14210598FFF799
:1083F40041FC049B01221A7006E09DF82820039B8F
:1084040002990598FFF726FF9DF81F30002B0ED028
:108414004FF482710598FFF750FC0346002B06D0F9
:108424004FF482710598FFF733FC002300E0012329
:10843400184609B05DF804FB00B58BB005900491B3
:1084440003928DF80B300023099342F210730793C3
:108454004FF482710498FFF71BFC4FF49271049857
:10846400FFF716FC4FF48E710498FFF711FC4FF4DC
:1084740084710498FFF70CFC00210498FFF79FFC1B
:10848400059B002283F82620059B002283F82320E5
:1084940020210498FFF7EEFB08210498FFF7EAFB7C
:1084A400059B03F126019DF80B209DF830300093C5
:1084B4000B4603990498FFF79BFE059B1B68002B52
:1084C4000DD0059B40F286229A60059B9B68194655
:1084D4000498FFF704FC33E0079B013B0793079BD9
:1084E400002B12DD059B03F12301059B03F12602FA
:1084F4009DF8303001939DF80B300093039B049852
:10850400FFF7E1FE0346002BE6D1059B93F82330E9
:10851400002B0AD00498FFF721FC0890089B002B3D
:1085240003D00898FFF71EFD0990079B002B07DC7A
:108534000498FFF7F1FB0498FFF7E5FB0323099385
:10854400099B18460BB05DF804FB00B58BB0059091
:10855400049103928DF80B300023099342F21073B7
:1085640007934FF482710498FFF792FB4FF49271D2
:108574000498FFF78DFB4FF48E710498FFF788FB86
:108584004FF484710498FFF783FB059B002283F862
:108594002620059B002283F823209DF80B30012B15
:1085A40004D102210498FFF70AFC03E00121049896
:1085B400FFF705FC20210498FFF75CFB00210498D9
:1085C400FFF758FB059B1B68002B0DD0059B40F261
:1085D40086229A60059B9B6819460498FFF77FFBE7
:1085E40032E0079B013B0793079B002B11DD059BA2
:1085F40003F12301059B03F12602002301939DF857
:108604000B300093039B0498FFF75DFE0346002B99
:10861400E7D1059B93F82330002B0AD00498FFF789
:108624009DFB0890089B002B03D00898FFF79AFC49
:108634000990079B002B07DC0498FFF76DFB049857
:10864400FFF761FB03230993099B18460BB05DF800
:1086540004FB00B589B005900491039202930023B2
:1086640007934FF0FF310498FFF743FB059B93F802
:108674002430DBB2002B09D0059B9B681946049873
:10868400FFF72DFB11230793079B66E0029B03F082
:108694000403002B0CBF01230023DAB2059B83F8EB
:1086A4002420029B03F00803002B03D00623079326
:1086B400079B52E0059B029A9A61059B039A0C332F
:1086C40007CA83E80700039B9A78059B83F8202058
:1086D400039B5A68059BDA61039B5B7819460498EF
:1086E400FFF74AFB039B1B78012B20D0039B1B78CD
:1086F400002B04D1029B03F02003002B01D00123A3
:1087040000E0002303F00103DAB2059B83F8212083
:10871400039B5A68039B9978059B93F82130009337
:108724000B4604990598FFF787FE07900CE0059B1C
:10873400002283F82120039B5A68039B9B780499A9
:108744000598FFF702FF0790059B1B68002B03D1D8
:10875400059B002283F82420079B184609B05DF886
:1087640004FB000000B587B003900291019200233E
:108774000593039B1B791A4613469B001344DB00A5
:10878400194A13440493049B1B68002B08D1029BD1
:108794001B78022B04D1154940F2B730FDF7A1FD37
:1087A400049B1B68002B08D1029B1B78032B04D16C
:1087B4000E494FF46E70FDF794FD019B03F0030323
:1087C400002B03D006230593059B08E0039B19683F
:1087D400019B029A0498FFF73CFF0590059B1846FD
:1087E40007B05DF804FB00BFBC280020641F030031
:1087F40000B589B0039001921A460B468DF80B30F0
:1088040013468DF80A3005AB00221A605A609A604C
:108814009DF80B308DF815309DF80A308DF8163020
:10882400019B06939DF82830002B01D0202200E004
:10883400002205AB19460398FFF794FF0346184638
:1088440009B05DF804FB00B589B0039001921A46A3
:108854000B468DF80B3013468DF80A3005AB002219
:108864001A605A609A6001238DF814309DF80B3019
:108874008DF815309DF80A308DF81630019B06935B
:1088840005AB002219460398FFF76CFF0346184610
:1088940009B05DF804FB000010B58AB003900291A2
:1088A400029B1B68002B04D14E4940F29340FDF714
:1088B40018FD029B03F12301029B03F12600029B96
:1088C400DC69029B93F82030029A92F821200192ED
:1088D4000093234602460398FFF7F5FC0346002B5A
:1088E4007DD1029B93F8233083F00103DBB2002B8C
:1088F4003FD0029B1B7B022B03D0029B1B7B032BD1
:1089040037D1029BDA69029B1B699A4231D1029BDF
:108914005A69029BDA61029BDA7B029B83F820206E
:10892400029B9B6903F02003002B14BF0123002347
:10893400DAB2029B83F82120029B1B7B032B0ED10E
:10894400029BDA69029B93F82010029B93F8213072
:1089540000930B4603990298FFF76EFD40E0029BDB
:10896400DA69029B93F8203003990298FFF7EDFD32
:1089740036E0029A06AB0C3207CA83E80700029B72
:1089840093F82330002B15D00398FFF7E7F90990EB
:10899400099B03F00203002B03D001238DF814304C
:1089A4000BE0099B03F00403002B06D002238DF88F
:1089B400143002E000238DF81430029B002283F867
:1089C4002420029B9B6903F00403002B08D1029B23
:1089D4001B68029A516805AA1046984700E000BF38
:1089E4000AB010BD641F030008B503490348FFF72C
:1089F40053FF00BF08BD00BFBC280020003000406A
:108A040082B00346ADF80630BDF8063003F180436A
:108A140003F5E8331B68002B14BF01230023DBB2EA
:108A2400184602B0704784B00346ADF80630BDF86E
:108A3400063003F1804303F5E83300221A60BDF8E1
:108A4400063003F1804303F5E8331B680393039B6B
:108A540000BF04B070470000024B0022C3F8002599
:108A640000BF704700D0014000B58BB04FF4807058
:108A7400FFF7C6FF0346002B68D04FF48070FFF762
:108A8400D2FF6C4B9B7C8DF827306A4B9B7C03F0A8
:108A94000103002B0CBF01230023DBB28DF8263029
:108AA4009DF82630634A9B0013445B68002B04D175
:108AB400604B5B7CDBB2022B2BD100238DF8203082
:108AC4005C4B0022DA745B4B5B7CDBB2022B05D17E
